:020000040000FA
:0400000006EF00F017
:1000080091ED08F015EED7F036EF0AF0F29E23EEE8
:10001800D5F0DECF6CF0DDCF6DF0710E6C02F3CF52
:100028006AF0F4CF6BF06D02F3506B26C00E6A24B1
:10003800D96E000E6B20DA6E020EDE18D8A427EFF8
:1000480000F029EF00F03EEF01F023EED5F0DECF0F
:100058006CF0DDCF6DF0710E6C02F3CF6AF0F4CF67
:100068006BF06D02F3506B26C00E6A24D96E000E39
:100078006B20DA6EFF0EE3CFDFFF23EED5F0DECF85
:100088006CF0DDCF6DF0710E6C02F3CF6AF0F4CF37
:100098006BF06D02F3506B26260E6A24D96E010EA2
:1000A8006B20DA6EE8CFDFFF23EED5F0DECF6CF001
:1000B800DDCF6DF0710E6C02F3CF6AF0F4CF6BF008
:1000C8006D02F3506B26270E6A24D96E010E6B2041
:1000D800DA6ED8CFDFFF23EED5F0DECF6CF0DDCFC0
:1000E8006DF0710E6C02F3CF6AF0F4CF6BF06D0215
:1000F800F3506B26280E6A24D96E010E6B20DA6E37
:10010800E0CFDFFF036A046A1DEF01F003C06CF063
:1001180004C06DF0030E6C02F3CF6AF0F4CF6BF0FD
:100128006D02F3506B2623EED5F0DECF6CF0DDCFF9
:100138006DF0710E6C02F3CF68F0F4CF69F06D02C8
:10014800F3506926BC0E6C6E000E6D6E070E6C26A1
:10015800000E6D2268506C2669506D226A506C241E
:10016800D96E6B506D20DA6EFFCFDFFF03C06CF0E5
:1001780004C06DF0030E6C02F3CF6AF0F4CF6BF09D
:100188006D02F3506B2623EED5F0DECF6CF0DDCF99
:100198006DF0710E6C02F3CF68F0F4CF69F06D0268
:1001A800F3506926BC0E6C6E000E6D6E090E6C263F
:1001B800000E6D2268506C2669506D226A506C24BE
:1001C800D96E6B506D20DA6EFECFDFFF03C06CF086
:1001D80004C06DF0030E6C02F3CF6AF0F4CF6BF03D
:1001E8006D02F3506B2623EED5F0DECF6CF0DDCF39
:1001F8006DF0710E6C02F3CF68F0F4CF69F06D0208
:10020800F3506926BC0E6C6E000E6D6E080E6C26DF
:10021800000E6D2268506C2669506D226A506C245D
:10022800D96E6B506D20DA6EFDCFDFFF034A042ACA
:100238000600FC50D8A423EF01F025EF01F08AEF67
:1002480000F023EED5F0DECF6CF0DDCF6DF0710E4F
:100258006C02F3CF6AF0F4CF6BF06D02F3506B26AB
:10026800C10E6A24D96E000E6B20DA6E03C0DEFF61
:1002780004C0DDFF3AEC09F062C0D5F363C0D6F3E1
:10028800FC6A23EED5F0DECF6CF0DDCF6DF0710E99
:100298006C02F3CF6AF0F4CF6BF06D02F3506B266B
:1002A800C10E6A24D96E000E6B20DA6EDE50DE10A5
:1002B800D8A461EF01F063EF01F084EF01F00500CD
:1002C80023EED5F0DECF6CF0DDCF6DF0710E6C0251
:1002D800F3CF6AF0F4CF6BF06D02F3506B26290E62
:1002E8006A24D96E010E6B20DA6EDECF6CF0DDCF9A
:1002F8006DF06CC0FDFF6DC0FEFFFF6A88EF02F075
:1003080023EED5F0DECF6CF0DDCF6DF0710E6C0210
:10031800F3CF6AF0F4CF6BF06D02F3506B26260E24
:100328006A24D96E010E6B20DA6EDF506D6E6D5047
:1003380023EED5F0DECF6CF0DDCF6DF0710E6C02E0
:10034800F3CF6AF0F4CF6BF06D02F3506B26270EF3
:100358006A24D96E010E6B20DA6EDF50D86E23EE58
:10036800D5F0DECF6CF0DDCF6DF0710E6C02F3CFFF
:100378006AF0F4CF6BF06D02F3506B26280E6A24F6
:10038800D96E010E6B20DA6EDF50E06E23EED5F0E9
:10039800DECF6CF0DDCF6DF0710E6C02F3CF6AF03A
:1003A800F4CF6BF06D02F3506B26C10E6A24D96E40
:1003B800000E6B20DA6EDECF6CF0DDCF6DF0FF0E35
:1003C8006C24036EFF0E6D20046E7FEF02F00500B3
:1003D80003C06CF004C06DF0030E6C02F3CF6AF03A
:1003E800F4CF6BF06D02F3506B2623EED5F0DECF21
:1003F8006CF0DDCF6DF0710E6C02F3CF68F0F4CFC6
:1004080069F06D02F3506926BC0E6C6E000E6D6EBD
:10041800080E6C26000E6D2268506C2669506D22FD
:100428006A506C24D96E6B506D20DA6EDF50FD6E09
:1004380003C06CF004C06DF0030E6C02F3CF6AF0D9
:10044800F4CF6BF06D02F3506B2623EED5F0DECFC0
:100458006CF0DDCF6DF0710E6C02F3CF68F0F4CF65
:1004680069F06D02F3506926BC0E6C6E000E6D6E5D
:10047800090E6C26000E6D2268506C2669506D229C
:100488006A506C24D96E6B506D20DA6EDF50FE6EA8
:1004980003C06CF004C06DF0030E6C02F3CF6AF079
:1004A800F4CF6BF06D02F3506B2623EED5F0DECF60
:1004B8006CF0DDCF6DF0710E6C02F3CF68F0F4CF05
:1004C80069F06D02F3506926BC0E6C6E000E6D6EFD
:1004D800070E6C26000E6D2268506C2669506D223E
:1004E8006A506C24D96E6B506D20DA6EDF50FF6E47
:1004F8000306D8A0040603500410D8A486EF02F01F
:1005080088EF02F0EBEF01F023EED5F0DECF6CF0D0
:10051800DDCF6DF0710E6C02F3CF6AF0F4CF6BF0A3
:100528006D02F3506B26C00E6A24D96E000E6B2044
:10053800DA6E020EDF6EF28EE5521200FC0EE3CF89
:1005480062F0FD0EE3506210D8A4ADEF02F0AFEFF9
:1005580002F034EF03F0D8EF02F0826A6CEF03F098
:10056800100E826E6CEF03F0200E826E6CEF03F0BB
:10057800300E826E6CEF03F0400E826E6CEF03F06B
:10058800500E826E6CEF03F0600E826E6CEF03F01B
:10059800700E826E6CEF03F0800E826E6CEF03F0CB
:1005A800900E826E6CEF03F0FE0EE3CF6CF0FF0E40
:1005B800E3CF6DF06D50000AD8B4E5EF02F0B1EF6B
:1005C80002F06C50000AD8B4B1EF02F0010AD8B4B6
:1005D800B4EF02F0030AD8B4B8EF02F0010AD8B4B5
:1005E800BCEF02F0070AD8B4C0EF02F0010AD8B491
:1005F800C4EF02F0030AD8B4C8EF02F0010AD8B475
:10060800CCEF02F00F0AD8B4D0EF02F0010AD8B448
:10061800D4EF02F0B1EF02F0010E826E6CEF03F03E
:10062800020E826E6CEF03F0030E826E6CEF03F025
:10063800040E826E6CEF03F0050E826E6CEF03F011
:10064800060E826E6CEF03F0070E826E6CEF03F0FD
:10065800080E826E6CEF03F0090E826E6CEF03F0E9
:10066800FE0EE3CF6CF0FF0EE3CF6DF06D50000A85
:10067800D8B441EF03F0B1EF02F06C50000AD8B4DF
:10068800B1EF02F0010AD8B410EF03F0030AD8B4AE
:1006980014EF03F0010AD8B418EF03F0070AD8B42E
:1006A8001CEF03F0010AD8B420EF03F0030AD8B412
:1006B80024EF03F0010AD8B428EF03F00F0AD8B4E6
:1006C8002CEF03F0010AD8B430EF03F0B1EF02F0D9
:1006D800E552E552E552E5521200E652E652E6527C
:1006E800E652FE0EE36AF90EE3BE7FEF03F07DEFFC
:1006F80003F088EF03F0F80EE36CF90EE31ED8B0B0
:10070800E32AFE0EE36AE32AFB0EE3BE90EF03F052
:100718008EEF03F098EF03F0FA0EE36CFB0EE31E86
:10072800D8B0E32AFE0EE370FC0EE36AFD0EE36A1E
:10073800F80EE3CF62F0F90EE3506210D8B4A7EFD9
:1007480003F0A9EF03F015EF04F0FF0EE36AE32AC4
:10075800BFEF03F0F80EE350D890E834626EF80E5D
:1007680062C0E3FFF90EE350E834626EF90E62C02E
:10077800E3FFFF0EE32AF90EE3AEC5EF03F0C7EF80
:1007880003F0AEEF03F0FC0EE350D890E834626E4D
:10079800FC0E62C0E3FFFD0EE350E834626EFD0E0E
:1007A80062C0E3FFF80EE3CF6CF0F90EE3CF6DF013
:1007B800FA0EE3CF6AF0FB0EE3CF6BF06C506A5C85
:1007C8006D506B58D8A0EBEF03F0EDEF03F001EF9D
:1007D80004F0FA0EE350626EF80EE350625EFA0E11
:1007E80062C0E3FFFB0EE350626EF90EE350625AFB
:1007F800FB0E62C0E3FFFC0EE380D890F90EE332F3
:10080800F80EE332FF0EE350626E010E625EFF0ED9
:1008180062C0E3FFD8A413EF04F015EF04F0C7EFAC
:1008280003F0FE0EE350D8B41CEF04F01EEF04F002
:1008380024EF04F0FC0EE36CFD0EE31ED8B0E32AAF
:10084800FC0EE3CF62F0FD0EE3CF63F0F80EE12675
:10085800FF0EE222120023EED3F0010EDBBE3FEFC3
:1008680004F0010EDB5009E1070EDE5CD8A03FEF73
:1008780004F041EF04F047EF04F0000E506E000E54
:100888004F6EEAEF04F0710EE66E000EE66E23EE90
:10089800D3F0DECF55F0DDCF56F055C0E6FF56C099
:1008A800E6FF87EC09F0BC0E6224D96E000E6320C7
:1008B800DA6E4FC0DEFF50C0DDFF710EE66E000E2F
:1008C800E66E23EED3F0DECF55F0DDCF56F055C0FF
:1008D800E6FF56C0E6FF87EC09F0BE0E6224D96E2B
:1008E800000E6320DA6E51C0DEFF52C0DDFF710ECC
:1008F800E66E000EE66E23EED3F0DECF55F0DDCFC8
:1009080056F055C0E6FF56C0E6FF87EC09F0290E01
:100918006224D96E010E6320DA6E53C0DEFF54C024
:10092800DDFF710EE66E000EE66E23EED3F0DECF2D
:1009380055F0DDCF56F055C0E6FF56C0E6FF87EC10
:1009480009F02B0E6224D96E010E6320DA6E000EB8
:10095800DE6E000EDD6E710EE66E000EE66E23EEA4
:10096800D3F0DECF55F0DDCF56F055C0E6FF56C0C8
:10097800E6FF87EC09F0C00E6224D96E000E6320F2
:10098800DA6E010EDF6E710EE66E000EE66E23EE75
:10099800D3F0DECF55F0DDCF56F055C0E6FF56C098
:1009A800E6FF87EC09F0C10E6224D96E000E6320C1
:1009B800DA6E000EDE6E000EDD6E23EED3F0DE2A58
:1009C800000EDD22000E506E010E4F6E1200F29ED8
:1009D800FE0EE3CF6CF0FF0EE3CF6DF0120E6C2429
:1009E800D96E000E6D20DA6EDE2A000EDD22FE0EB4
:1009F800E3CF6CF0FF0EE3CF6DF0120E6C24D96ECE
:100A0800000E6D20DA6E010EDBBE16EF05F0010E4A
:100A1800DB5006E1DE04D8B014EF05F016EF05F060
:100A28008EEF05F0FE0EE3CF6CF0FF0EE3CF6DF016
:100A3800100E6C24D96E000E6D20DA6EDECF6CF0CD
:100A4800DDCF6DF0D8906C346A6E6D346B6EFE0E2F
:100A5800E3CF6CF0FF0EE3CF6DF06A506C24D96ED3
:100A68006B506D20DA6EDECF6CF0DDCF6DF0710E5D
:100A78006C02F3CF6AF0F4CF6BF06D02F3506B2683
:100A8800C00E6A24D96E000E6B20DA6E010EDF6E7E
:100A9800FE0EE3CF6CF0FF0EE3CF6DF00E0E6C246C
:100AA800D96E000E6D20DA6EDECF6CF0DDCF6DF002
:100AB8006CC0E6FF6DC0E6FFFC0EE3CF6CF0FD0EE8
:100AC800E3CF6DF0100E6C24D96E000E6D20DA6E37
:100AD800DECF6CF0DDCF6DF0010E6C26000E6D22BE
:100AE8006CC0E6FF6DC0E6FF92EC05F0FE0EE3CFAA
:100AF8006CF0FF0EE3CF6DF0100E6C24D96E000E73
:100B08006D20DA6E62C0DEFF63C0DDFF010EE66EA7
:100B18000AEC00F0F28EE552E5521200E652E65277
:100B2800FE0EE36AFD0EE3BE9EEF05F09CEF05F0B6
:100B3800A7EF05F0FC0EE36CFD0EE31ED8B0E32A28
:100B4800FE0EE36AE32AFB0EE3BEAFEF05F0ADEF5E
:100B580005F0B5EF05F0FA0EE36CFB0EE31ED8B016
:100B6800E32AFA0EE3CF62F0FB0EE3506210D8B42A
:100B7800C0EF05F0C2EF05F01DEF06F0FF0EE36AC7
:100B8800E32AD8EF05F0FA0EE350D890E834626E05
:100B9800FA0E62C0E3FFFB0EE350E834626EFB0E10
:100BA80062C0E3FFFF0EE32AFB0EE3AEDEEF05F0C3
:100BB800E0EF05F0C7EF05F0FA0EE3CF6CF0FB0E9F
:100BC800E3CF6DF0FC0EE3CF6AF0FD0EE3CF6BF0E0
:100BD8006C506A5C6D506B58D8A0F5EF05F0F7EFD4
:100BE80005F009EF06F0FC0EE350626EFA0EE350D2
:100BF800625EFC0E62C0E3FFFD0EE350626EFB0E08
:100C0800E350625AFD0E62C0E3FFD890FB0EE33258
:100C1800FA0EE332FF0EE350626E010E625EFF0EC3
:100C280062C0E3FFD8A41BEF06F01DEF06F0E0EF6B
:100C380005F0FE0EE350D8B424EF06F026EF06F0D8
:100C48002CEF06F0FC0EE36CFD0EE31ED8B0E32A91
:100C5800FC0EE3CF62F0FD0EE3CF63F0FA0EE1265F
:100C6800FF0EE22212005F6E7E0E5F643EEF06F01A
:100C780040EF06F046EF06F0000E576E000E586E75
:100C8800C5EF06F0D70E606E030E616E60C0D9FF27
:100C980061C0DAFFDF505E6E5E507F0B596E5904FB
:100CA8005D6E5E50D8A45BEF06F05DEF06F05FEF77
:100CB80006F040EF06F05EBE64EF06F066EF06F061
:100CC8007DEF06F05F505D5CD8B06DEF06F06FEF1A
:100CD80006F088EF06F060C04FF061C050F0C8EC35
:100CE80007F00009D8A47BEF06F07DEF06F0C3EF0C
:100CF80006F05E507F0B596E5950010DF350602677
:100D0800F45061224AEF06F05D505F18D8A48FEFC7
:100D180006F091EF06F09EEF06F060C0D9FF61C0C3
:100D2800DAFFDF8E010E6024576E000E6120586EC8
:100D3800C5EF06F05F50810F60C0D9FF61C0DAFFD0
:100D4800DF6E010E60245B6E000E61205C6E5F50EA
:100D5800596E5A6A010E5926000E5A2259506026B9
:100D68005A5061225F505D5C60C0D9FF61C0DAFFF4
:100D7800DF6E5BC057F05CC058F0C5EF06F04AEF75
:100D880006F0120014EC0BF0D2EC09F0000E506ED5
:100D9800010E4F6E000E526E060E516E940E536E7B
:100DA800160E546E2FEC04F04F505010D8A4DFEFFD
:100DB80006F0E1EF06F0E3EF06F04BEF07F0000E68
:100DC800506E020E4F6E000E526E050E516EA20E40
:100DD800536E150E546E2FEC04F04F505010D8A4DB
:100DE800F8EF06F0FAEF06F0FCEF06F04BEF07F02D
:100DF800000E506E030E4F6E000E526E040E516EB2
:100E0800140E536E150E546E2FEC04F04F50501004
:100E1800D8A411EF07F013EF07F015EF07F04BEF29
:100E280007F0000E506E050E4F6E000E526E020E49
:100E3800516E0A0E536E140E546E2FEC04F04F5080
:100E48005010D8A42AEF07F02CEF07F02EEF07F088
:100E58004BEF07F0000E506E060E4F6E000E526EEE
:100E6800010E516E5C0E536E150E546E2FEC04F08D
:100E78004F505010D8A443EF07F045EF07F047EF65
:100E880007F04BEF07F06DEC0BF049EF07F006EFBA
:100E980000F0F29EFE0EE3CF6CF0FF0EE3CF6DF094
:100EA800120E6C24D96E000E6D20DA6EDE06000E6E
:100EB800DD5AFE0EE3CF6CF0FF0EE3CF6DF0120E9D
:100EC8006C24D96E000E6D20DA6E010EDBBE71EF58
:100ED80007F06FEF07F0C4EF07F023EED5F0FE0E32
:100EE800E3CF6CF0FF0EE3CF6DF00E0E6C24E96ECD
:100EF800000E6D20EA6EEECF6CF0EDCF6DF0D8905D
:100F08006C346A6E6D346B6EFE0EE3CF6CF0FF0EC0
:100F1800E3CF6DF06A506C24E96E6B506D20EA6E79
:100F2800DECFEEFFDDCFEDFFFE0EE3CF6CF0FF0E60
:100F3800E3CF6DF00E0E6C24D96E000E6D20DA6EC4
:100F4800DECF6CF0DDCF6DF0010E6C26000E6D2249
:100F5800070E6C16000E6D16FE0EE3CF6AF0FF0E3C
:100F6800E3CF6BF00E0E6A24D96E000E6B20DA6E9A
:100F78006CC0DEFF6DC0DDFF040EE66E0AEC00F00B
:100F8800F28EE552E55212004FC0D9FF50C0DAFF89
:100F9800DF50516E51504F24526E000E5020536E48
:100FA8004FC0D9FF50C0DAFFDF50556E52C0D9FF8D
:100FB80053C0DAFFDF50566E5650D8A4E6EF07F05C
:100FC800E8EF07F0EBEF07F0000E33EF08F055BE3F
:100FD800F0EF07F0F2EF07F0E8EF07F056AEF7EFA3
:100FE80007F0F9EF07F0FBEF07F0E8EF07F05550CF
:100FF8007F0B7F0AD8A403EF08F005EF08F007EF8E
:1010080008F0E8EF07F055505624546E7F0E5464EC
:1010180010EF08F012EF08F02CEF08F04FC0D9FFDE
:1010280050C0DAFF7F0EDF6E7F0E4F26000E502273
:101038005650010DF3505226F45053224F50525C33
:101048004FC0D9FF50C0DAFFDF6E7F0E33EF08F0D4
:101058004FC0D9FF50C0DAFF54C0DFFFDF50120085
:10106800E652E652E652E652FB0EE3BE49EF08F0BE
:10107800FB0EE3500CE1FA0EE3CF62F00A0E625E5B
:10108800D8A049EF08F04BEF08F081EF08F00A0EFE
:10109800E66E000EE66EF80EE3CFE6FFE3CFE6FF5E
:1010A80092EC05F0FE0E62C0E3FFFF0E63C0E3FFA3
:1010B8000A0EE66E000EE66EF80EE3CFE6FFE3CF0B
:1010C800E6FF71EC03F0FC0E62C0E3FFFD0E63C0A7
:1010D800E3FF000EE66E000EE66EFC0EE3CFE6FFC1
:1010E800E3CFE6FFA2EC02F0FC0EE3CF6DF08250F6
:1010F800F00B6D10826E8CEF08F0010EE66E000E9C
:10110800E66EF80EE3CFE6FFE3CFE6FFA2EC02F0CF
:10111800FA0EE126FF0EE22212000600E1CF41F0AE
:10112800E2CF42F0D9CF43F0DACF44F0F3CF45F025
:10113800F4CF46F062C047F063C048F068C049F099
:1011480069C04AF06AC04BF06BC04CF06CC04DF0FF
:101158006DC04EF015EEE6F0F294FC0ED66EFF0E62
:101168007024706EFF0E7120716E71BEC6EF08F0AC
:10117800715006E17004D8B0C4EF08F0C6EF08F06B
:10118800CEEF08F0000E716E080E706E010EE66E5E
:101198000AEC00F04EC06DF04DC06CF04CC06BF026
:1011A8004BC06AF04AC069F049C068F048C063F0B3
:1011B80047C062F046C0F4FF45C0F3FF44C0DAFF01
:1011C80043C0D9FF42C0E2FF41C0E1FF1100959042
:1011D80095989594959C959E9596939093929598AD
:1011E800959A959C959E939A938C938E93909392AF
:1011F80068EC0BF00A0E37EC06F057C001F058C047
:1012080002F0190E4F6E000E506E000E526E010E57
:10121800516EF3EC0AF0050E4F6E000E506E000E84
:10122800526E000E516EF3EC0AF0A80E4F6E000ECF
:10123800506E000E526E000E516EF3EC0AF0940ED2
:101248004F6E000E506E000E526E000E516EF3EC93
:101258000AF0370E4F6E000E506E61EC0AF02D0E3C
:101268004F6E000E506E61EC0AF01200E652E65224
:10127800FE0ED5C3E3FFFF0ED6C3E3FF23EED3F084
:10128800DECF6CF0DDCF6DF06CC0E6FF6DC0E6FF21
:10129800FC0EE350010F6C6EFD0EE3CF6DF0000EF7
:1012A8006D226CC0E6FF6DC0E6FF92EC05F0FE0E05
:1012B80062C0E3FFFF0E63C0E3FFFE0EE3CF6CF0F6
:1012C800FF0EE3CF6DF0710E6C02F3CF6AF0F4CF2E
:1012D8006BF06D02F3506B26C00E6A24D96E000EB7
:1012E8006B20DA6EDE04D8A47CEF09F07EEF09F0FB
:1012F80042EF09F0FE0EE3CF62F0FF0EE3CF63F09A
:10130800E552E5521200E652E652FA0EE3CF6DF0CE
:10131800FC0EE3506D02FE0EF3CFE3FFFF0EF4CF99
:10132800E3FFFB0EE124D96EFF0EE220DA6EDF50F8
:101338006D6EFC0EE3506D02F3CFF4FFF36AE150DB
:10134800FE0FD96EE250DA6EFF0EDA22F350DE2677
:10135800F450DD22FA0EE3CF6DF0FD0EE124D96ED4
:10136800FF0EE220DA6EDF506D02F3CFF4FFF36A6E
:10137800E150FE0FD96EE250DA6EFF0EDA22F3501A
:10138800DE26F450DD22FE0EE3CF62F0FF0EE3CF3F
:1013980063F0FA0EE126FF0EE2221200D70E4F6E1E
:1013A800030E506E010E526E5168525009E1800EC4
:1013B800515CD8A0E2EF09F0E4EF09F0F6EF09F08C
:1013C8004FC0D9FF50C0DAFF7F0EDF6E7F0E4F2669
:1013D800000E5022810E5124516EFF0E5220526E83
:1013E800D9EF09F04FC0D9FF50C0DAFF51C0DFFF75
:1013F80051504F24D96E52505020DA6E000EDF6ED5
:101408001200940EE66E000EE66E4DEC07F06FBE0D
:1014180019EF0AF06F5007E1320E6E5CD8B017EF83
:101428000AF019EF0AF02CEF0AF06FBE25EF0AF068
:101438006F5009E11A0E6E5CD8A025EF0AF027EF6D
:101448000AF02CEF0AF083886E4A6F2A2DEF0AF013
:101458008398800EE66E000EE66EEBEC04F005EF66
:101468000AF01200E20EF66E160EF76E000EF86E17
:1014780000EE6EF020EE04F00900F5CFEEFFDD502F
:10148800D950FAE100EEBCF025EE1BF0EE6ADD5013
:10149800D950FCE1DA50FAE100EE80F03C0EEE6A39
:1014A800E806FDE100EE01F0400EEE6AE806FDE117
:1014B800000EF86E0001C6EF06F020EE02F04F5065
:1014C800D9265050DA22000EDE6E000EDD6E20EEB8
:1014D80004F04F50D9265050DA22000EDE6E000E6E
:1014E800DD6E20EE06F04F50D9265050DA22000E5D
:1014F800DE6E000EDD6E20EE08F04F50D9265050FB
:10150800DA22000EDE6E000EDD6E1200A80EE66E08
:10151800000EE66E4DEC07F06E06D8A06F0683B499
:1015280098EF0AF09BEF0AF0010E9CEF0AF0000E0C
:10153800FF0A6D6E6D466D4683506D18FB0B6D1876
:10154800836E940EE66E000EE66EEBEC04F08AEF06
:101558000AF01200800EE66E000EE66E4DEC07F003
:101568006FBEC2EF0AF06F5007E1190E6E5CD8B07B
:10157800C0EF0AF0C2EF0AF0C7EF0AF0838A6E4A9A
:101588006F2AC8EF0AF0839A190EE66E000EE66E0F
:10159800EBEC04F0AEEF0AF01200050EE66E000E5A
:1015A800E66E4DEC07F06E06D8A06F0683B0DFEF4D
:1015B8000AF0E2EF0AF0010EE3EF0AF0000EFF0A6C
:1015C8006D6E83506D18FE0B6D18836EA80EE66E57
:1015D800000EE66EEBEC04F0D1EF0AF01200F29E7A
:1015E80020EE12F04F50D9265050DA2251C0DEFFBB
:1015F80052C0DDFF20EE0EF04F50D9265050DA22AF
:10160800000EDE6E000EDD6E20EE10F04F50D92673
:101618005050DA22000EDE6E000EDD6EF28E1200E1
:10162800000EE8CFD3F3000EE8CFD4F3000EE8CFD6
:10163800D5F3000EE8CFD6F3000E506E000E4F6EB5
:10164800000E526E000E516E660E536E160E546EDC
:101658002FEC04F05FEC0BF0EBEC08F0120083B613
:1016680038EF0BF03BEF0BF0010E3CEF0BF0000EE8
:10167800FF0A6D6E6D466D466D4683506D18F70B0B
:101688006D18836E00F033EF0BF01200190EE66E42
:10169800000EE66E4DEC07F06EC0E6FF6FC0E6FF89
:1016A80034EC08F0050EE66E000EE66EEBEC04F086
:1016B8004AEF0BF01200F28CF294D59AD596070EE9
:1016C800D512FC0ED66E1200000E946E000E826EBD
:0E16D8001200F28EF28AD58E12006300080016
:020000040020DA
:08000000FFFFFFFFFFFFFFFF00
:020000040030CA
:0E000000FF071F1EFF8185FF0FC00FE00F409E
:00000001FF
