:020000040000FA
:0400000006EF00F017
:0C000800D1ED2DF015EE4CF09FEF31F023
:10060000000000803F000020410000C84200007A46
:100610004400401C460050C347002474498096188B
:100620004B20BCBE4C286B6E4EF9021550EC78ADD9
:1006300060CAF249710000803FCDCCCC3D0AD7237F
:100640003C6F12833A17B7D138ACC52737BD378610
:100650003595BFD63377CC2B325F708930FFE6DB20
:100660002E08E53C1E6042A20D010000000A0000B9
:100670000064000000E803000010270000A08601CD
:100680000040420F008096980000E1F50500CA9AEC
:100690003B424154544552592025002530342E32D6
:0306A000660000F1
:1006A400170EE126000EE222FE0E6C6EFF0E6D6E3A
:1006B400E60EE1246A6EFF0EE2206B6E6C506A2631
:1006C4006D506B22FE0E6BC0E3FFFD0E6AC0E3FFAC
:1006D4008CEF0CF0FF0EE3CF62F0250E6218D8B455
:1006E40076EF03F078EF03F092EF03F0E60EE3CF3A
:1006F400D9FFE70EE3CFDAFFFF0EE3CFDFFFE60E0D
:10070400E350010F626EE60E62C0E3FF626AE70E19
:10071400E3506220626EE70E62C0E3FF8CEF0CF0E0
:10072400F70EE36AF80EE36AF90EE36AFA0EE36A77
:10073400ADEF03F0F90EE384E40EE350010F626EB3
:10074400E40E62C0E3FF626AE50EE3506220626E6B
:10075400E50E62C0E3FFE150E40FD96EE250DA6EB9
:10076400FF0EDA22DECFF6FFDDCFF7FF0800F550EB
:10077400300AD8B49CEF03F0C0EF03F0E150E40F6B
:10078400D96EE250DA6EFF0EDA22DECFF6FFDDCF4D
:10079400F7FF0800F550E66EC6EC31F062A0D5EF25
:1007A40003F0D7EF03F034EF04F0F70EE36AF80E2A
:1007B400E36A0A0EE66E000EE66EF50EE3CFE6FF80
:1007C400E3CFE6FFBEEC2FF0F70E62C0E3FFF80EB6
:1007D40063C0E3FFD00E6C6EFF0E6D6EE150E40F4C
:1007E400D96EE250DA6EFF0EDA22DECFF6FFDDCFED
:1007F400F7FF0800F5506A6E6B6A6C506A266D50FC
:100804006B22E150F70FD96EE250DA6EFF0EDA2256
:100814006A50DE266B50DD22E40EE350010F626E57
:10082400E40E62C0E3FF626AE50EE3506220626E8A
:10083400E50E62C0E3FFE150E40FD96EE250DA6ED8
:10084400FF0EDA22DECFF6FFDDCFF7FF0800F5500A
:10085400E66EC6EC31F062B032EF04F034EF04F02F
:10086400DBEF03F0E150E40FD96EE250DA6EFF0ED5
:10087400DA22DECFF6FFDDCFF7FF0800F5502E0AAF
:10088400D8A447EF04F049EF04F0BBEF04F0FA0EEC
:10089400E38CE40EE350010F626EE40E62C0E3FFEA
:1008A400626AE50EE3506220626EE50E62C0E3FF09
:1008B400F50EE36AF60EE36AA2EF04F00A0EE66EA2
:1008C400000EE66EF30EE3CFE6FFE3CFE6FFBEECE9
:1008D4002FF0F50E62C0E3FFF60E63C0E3FFD00E07
:1008E4006C6EFF0E6D6EE150E40FD96EE250DA6E5D
:1008F400FF0EDA22DECFF6FFDDCFF7FF0800F5505A
:100904006A6E6B6A6C506A266D506B22E150F50F6B
:10091400D96EE250DA6EFF0EDA226A50DE266B5090
:10092400DD22E40EE350010F626EE40E62C0E3FFC9
:10093400626AE50EE3506220626EE50E62C0E3FF78
:10094400E150E40FD96EE250DA6EFF0EDA22DECF08
:10095400F6FFDDCFF7FF0800F550E66EC6EC31F088
:1009640062B0B7EF04F0B9EF04F060EF04F0C7EF42
:1009740004F0F50EE36AF60EE36AFA0EE388C7EFB5
:1009840004F0FA0EE384EAEF04F0E150E40FD96EC8
:10099400E250DA6EFF0EDA22DFCF6CF0010EDE26B3
:1009A400DFCF6DF0000EDD226CC0F6FF6DC0F7FFE7
:1009B4000800FF0EF5CFE3FFFF0EE350000AD8B4A2
:1009C400ACEF0CF0660AD8B4C3EF04F08CEF0CF073
:1009D400E150F90FD96EE250DA6EFF0EDA22DE52E0
:1009E400070EDD14D8B4F9EF04F0FBEF04F0E5EFE3
:1009F4000AF0FA0EE3A801EF05F003EF05F00DEF9E
:100A040005F0060E6C6E000E6D6EF50E6CC0E3FF05
:100A1400F60E6DC0E3FFFD0EE3CF62F0040E625EDE
:100A2400FD0E62C0E3FFFE0EE3CF62F0000E625AD9
:100A3400FE0E62C0E3FFFD0EE3CFD9FFFE0EE3CF4F
:100A4400DAFFDECF6AF0DECF6BF0DECF6CF0DECF04
:100A54006DF0E90E6AC0E3FFEA0E6BC0E3FFEB0E34
:100A64006CC0E3FFEC0E6DC0E3FFEC0EE3BE3FEFA2
:100A740005F03DEF05F05DEF05F0E90EE3CFE6FF8D
:100A8400E3CFE6FFE3CFE6FFE3CFE6FFECEC31F0A4
:100A9400E90E62C0E3FFEA0E63C0E3FFEB0E64C03D
:100AA400E3FFEC0E65C0E3FFF90EE3500309626E49
:100AB400F90E62C0E3FFFB0EE36AFC0EE36A000E6C
:100AC400E66E000EE66E000EE66E000EE66EE50EB5
:100AD400E3CFE6FFE3CFE6FFE3CFE6FFE3CFE6FFB6
:100AE40026EC2CF062B079EF05F07BEF05F062EFB5
:100AF40006F0820E6C6EFF0E6D6EE90EE3CF66F0AB
:100B0400EA0EE3CF67F0EB0EE3CF68F0EC0EE3CF31
:100B140069F0180E93EF05F0D890693268326732A5
:100B24006632E82E8EEF05F066506A6E6B6A6C5082
:100B34006A266D506B22FB0E6AC0E3FFFC0E6BC08D
:100B4400E3FFE150FB0FD96EE250DA6EFF0EDA22BA
:100B5400DE06000EDD5A030EE66E000EE66EF90E9A
:100B6400E3CFE6FFE3CFE6FFBEEC2FF0FB0E62C05F
:100B7400E3FFFC0E63C0E3FF0A0EE66E000EE66EB2
:100B8400F90EE3CFE6FFE3CFE6FF7DEC27F0FB0EA3
:100B940062C0E3FFFC0E63C0E3FFFC0EE3BED7EFCD
:100BA40005F0D5EF05F0E1EF05F0E150FB0FD96E4C
:100BB400E250DA6EFF0EDA22DE06000EDD5AFB0E7C
:100BC400E3500008E66E0CEC1BF0ED0E62C0E3FF90
:100BD400EE0E63C0E3FFEF0E64C0E3FFF00E65C0EA
:100BE400E3FFE90EE3CFE6FFE3CFE6FFE3CFE6FF63
:100BF400E3CFE6FFE90EE3CFE6FFE3CFE6FFE3CF83
:100C0400E6FFE3CFE6FF32EC11F0ED0E62C0E3FF46
:100C1400EE0E63C0E3FFEF0E64C0E3FFF00E65C0A9
:100C2400E3FF000EE66E000EE66E800EE66E3F0EEB
:100C3400E66EE90EE3CFE6FFE3CFE6FFE3CFE6FFA0
:100C4400E3CFE6FFFCEC25F062B02BEF06F02DEFCE
:100C540006F039EF06F0E150FB0FD96EE250DA6E80
:100C6400FF0EDA22DE06000EDD5A62EF06F0000EF9
:100C7400E66E000EE66E200EE66E410EE66EE90E9E
:100C8400E3CFE6FFE3CFE6FFE3CFE6FFE3CFE6FF04
:100C9400FCEC25F062A051EF06F053EF06F062EF92
:100CA40006F0FB0EE350010F626EFB0E62C0E3FF21
:100CB400626AFC0EE3506220626EFC0E62C0E3FFC7
:100CC400F60EE3BE75EF06F0F60EE3500AE1F50EFC
:100CD400E3CF62F00D0E625ED8B073EF06F075EFED
:100CE40006F099EF06F0F50EE350E66E01EC21F004
:100CF40062C0E6FF63C0E6FF64C0E6FF65C0E6FFCE
:100D0400E50EE3CFE6FFE3CFE6FFE3CFE6FFE3CF75
:100D1400E6FFBEEC0CF0E90E62C0E3FFEA0E63C02E
:100D2400E3FFEB0E64C0E3FFEC0E65C0E3FFFC0ED3
:100D3400E3BEACEF06F0FC0EE3500AE1FB0EE3CF9A
:100D440062F00A0E625ED8B0AAEF06F0ACEF06F0CD
:100D540003EF07F0000EE66E000EE66E000EE66E80
:100D6400000EE66EE50EE3CFE6FFE3CFE6FFE3CF4A
:100D7400E6FFE3CFE6FF26EC2CF062B0C4EF06F00A
:100D8400C6EF06F07CEF07F0E90EE3CFE6FFE3CF12
:100D9400E6FFE3CFE6FFE3CFE6FF28EC25F062C0F1
:100DA40066F063C067F064C068F065C069F0000E67
:100DB4006A6E6B6A6C6A6D6A6D50691808E16C50F2
:100DC400681805E16B50671802E16A506618D8A4E8
:100DD400EEEF06F0F0EF06F07CEF07F0FC0EE3BE5A
:100DE40001EF07F0FC0EE3500CE1FB0EE3CF62F0E1
:100DF400020E625ED8A001EF07F003EF07F07CEF6C
:100E040007F05F0EE66E700EE66E890EE66E400E1B
:100E1400E66EE90EE3CFE6FFE3CFE6FFE3CFE6FFBE
:100E2400E3CFE6FFFCEC25F062B01BEF07F01DEF0B
:100E340007F02AEF07F0E150FB0FD96EE250DA6EAB
:100E4400FF0EDA22F70EDE26FF0EDD2235EF07F065
:100E5400E150FB0FD96EE250DA6EFF0EDA22F80E83
:100E6400DE26FF0EDD22FB0EE350E66E0CEC1BF0DB
:100E7400ED0E62C0E3FFEE0E63C0E3FFEF0E64C04D
:100E8400E3FFF00E65C0E3FFED0EE3CFE6FFE3CF33
:100E9400E6FFE3CFE6FFE3CFE6FFE50EE3CFE6FFB1
:100EA400E3CFE6FFE3CFE6FFE3CFE6FF8FEC1EF0F0
:100EB400F10E62C0E3FFF20E63C0E3FFF30E64C001
:100EC400E3FFF40E65C0E3FF000E6A6E000E6B6E66
:100ED400000E6C6E000E6D6EE90E6AC0E3FFEA0E42
:100EE4006BC0E3FFEB0E6CC0E3FFEC0E6DC0E3FFE1
:100EF400C3EF07F0E90EE3CFE6FFE3CFE6FFE3CF6E
:100F0400E6FFE3CFE6FF28EC25F0F10E62C0E3FF35
:100F1400F20E63C0E3FFF30E64C0E3FFF40E65C09A
:100F2400E3FFF10EE3CFE6FFE3CFE6FFE3CFE6FF17
:100F3400E3CFE6FF000EE66ED1EC1FF062C0E6FFE1
:100F440063C0E6FF64C0E6FF65C0E6FFE50EE3CFDD
:100F5400E6FFE3CFE6FFE3CFE6FFE3CFE6FFB3EC44
:100F640032F0E90E62C0E3FFEA0E63C0E3FFEB0E6A
:100F740064C0E3FFEC0E65C0E3FFFB0EE36AFC0E06
:100F8400E36AFF0EE36AE32AFF0EE350040D690EE1
:100F9400F324F66E060EF420F76EF10EE3CF62F042
:100FA4000900F550625CF20EE3CF62F00900F550DF
:100FB4006258F30EE3CF62F00900F5506258F40E64
:100FC400E3CF62F00900F5506258D8B0ECEF07F0B7
:100FD400EEEF07F0F0EF07F0FEEF07F0FF0EE32A65
:100FE400FF0EE3CF62F00A0E6218D8A4FCEF07F0FC
:100FF400FEEF07F0C6EF07F0FF0EE3506C6E6D6A6C
:10100400F50EE3506C26F60EE3506D22FB0EE35012
:101014006C26FC0EE3506D22F70EE3CF62F06C50A9
:10102400625EF70E62C0E3FFF80EE3CF62F06D502C
:10103400625AF80E62C0E3FFF50EE3CF62F0F60EDB
:10104400E3506210D8B429EF08F02BEF08F035EF25
:1010540008F0E150F70FD96EE250DA6EFF0EDA2293
:10106400DE06000EDD5AF90EE3CF6DF0030E6D16A9
:10107400D8B43FEF08F041EF08F04BEF08F0E1502F
:10108400F70FD96EE250DA6EFF0EDA22DE06000E9A
:10109400DD5AF90EE3A451EF08F053EF08F0CCEF5A
:1010A40008F0F90EE3CF6DF0030E6D16D8B45DEFC2
:1010B40008F05FEF08F099EF08F0E60EE3CFD9FFF0
:1010C400E70EE3CFDAFF2D0EDF6EE60EE350010FDD
:1010D400626EE60E62C0E3FF626AE70EE3506220CE
:1010E400626EE70E62C0E3FF99EF08F0E60EE3CF0D
:1010F400D9FFE70EE3CFDAFF300EDF6EE60EE350E2
:10110400010F626EE60E62C0E3FF626AE70EE3500F
:101114006220626EE70E62C0E3FFE150F70FD96E02
:10112400E250DA6EFF0EDA22DE06000EDD5AF80E09
:10113400E3BEA9EF08F0F80EE35007E1F70EE3046D
:10114400D8B0A7EF08F0A9EF08F078EF08F058EF4F
:1011540009F0E60EE3CFD9FFE70EE3CFDAFF200E66
:10116400DF6EE60EE350010F626EE60E62C0E3FF2F
:10117400626AE70EE3506220626EE70E62C0E3FF2C
:10118400E150F70FD96EE250DA6EFF0EDA22DE0676
:10119400000EDD5AF80EE3BEDCEF08F0F80EE35063
:1011A40007E1F70EE304D8B0DAEF08F0DCEF08F05B
:1011B400ABEF08F0F90EE3CF6DF0030E6D16D8B463
:1011C400E6EF08F0E8EF08F058EF09F0E60EE3CF99
:1011D400D9FFE70EE3CFDAFF2D0EDF6EE60EE35004
:1011E400010F626EE60E62C0E3FF626AE70EE3502F
:1011F4006220626EE70E62C0E3FF58EF09F0FF0E53
:10120400E350040D690EF324F66E060EF420F76E17
:101214000900F5CFE6FF0900F5CFE6FF0900F5CF99
:10122400E6FF0900F5CFE6FFED0EE3CFE6FFE3CFDF
:10123400E6FFE3CFE6FFE3CFE6FF87EC29F0ED0E10
:1012440062C0E3FFEE0E63C0E3FFEF0E64C0E3FF92
:10125400F00E65C0E3FF0A0EE66E000EE66E000EA9
:10126400E66E000EE66EE90EE3CFE6FFE3CFE6FF9F
:10127400E3CFE6FFE3CFE6FFB1EC2AF0ED0E62C068
:10128400E3FFEE0E63C0E3FFEF0E64C0E3FFF00E76
:1012940065C0E3FFE60EE3CFD9FFE70EE3CFDAFF45
:1012A400ED0EE350300FDF6EF0EF08F0FF0EE306B3
:1012B400FF0EE328D8A461EF09F063EF09F001EF12
:1012C40009F086EF09F0E60EE3CFD9FFE70EE3CF8E
:1012D400DAFF300EDF6EE60EE350010F626EE60EAB
:1012E40062C0E3FF626AE70EE3506220626EE70EBB
:1012F40062C0E3FFE150FB0FD96EE250DA6EFF0EDD
:10130400DA22DE06000EDD5AFC0EE3BE96EF09F08B
:10131400FC0EE35007E1FB0EE304D8B094EF09F0B0
:1013240096EF09F065EF09F0F60EE3BEA7EF09F0BA
:10133400F60EE3500CE1F50EE3CF62F0090E625EA7
:10134400D8A0A7EF09F0A9EF09F0AEEF09F0FF0E5E
:10135400E36AE386B4EF09F0F50EE3CF62F0FF0E23
:1013640062C0E3FFFF0EE3506C6E6D6AF50EE3CFCF
:1013740062F06C50625EF50E62C0E3FFF60EE3CFDE
:1013840062F06D50625AF60E62C0E3FFFF0EE35046
:10139400D8B4CFEF09F0D1EF09F0E8EF09F0E60E89
:1013A400E3CFD9FFE70EE3CFDAFF2E0EDF6EE60EB2
:1013B400E350010F626EE60E62C0E3FF626AE70E5D
:1013C400E3506220626EE70E62C0E3FFE90EE3CFF2
:1013D400E6FFE3CFE6FFE3CFE6FFE3CFE6FFFB0E56
:1013E400E350E66E0CEC1BF062C0E6FF63C0E6FF60
:1013F40064C0E6FF65C0E6FF32EC11F062C0E6FFB0
:1014040063C0E6FF64C0E6FF65C0E6FF28EC25F094
:10141400F10E62C0E3FFF20E63C0E3FFF30E64C09B
:10142400E3FFF40E65C0E3FFA8EF0AF0FF0EE350FC
:10143400040D690EF324F66E060EF420F76E09000F
:10144400F5CFE6FF0900F5CFE6FF0900F5CFE6FF8B
:101454000900F5CFE6FFED0EE3CFE6FFE3CFE6FFAD
:10146400E3CFE6FFE3CFE6FF87EC29F0ED0E62C0A1
:10147400E3FFEE0E63C0E3FFEF0E64C0E3FFF00E84
:1014840065C0E3FF0A0EE66E000EE66E000EE66E21
:10149400000EE66EE90EE3CFE6FFE3CFE6FFE3CF0F
:1014A400E6FFE3CFE6FFB1EC2AF0ED0E62C0E3FF06
:1014B400EE0E63C0E3FFEF0E64C0E3FFF00E65C001
:1014C400E3FFE60EE3CFD9FFE70EE3CFDAFFED0E3D
:1014D400E350300FDF6EE60EE350010F626EE60E4E
:1014E40062C0E3FF626AE70EE3506220626EE70EB9
:1014F40062C0E3FFFF0EE350040D690EF324F66EA1
:10150400060EF420F76E0900F5CFE6FF0900F5CFCB
:10151400E6FF0900F5CFE6FF0900F5CFE6FFED0E83
:10152400E3CFE6FFE3CFE6FFE3CFE6FFE3CFE6FF5B
:10153400B1EC2AF0F10E62C0E3FFF20E63C0E3FFE8
:10154400F30E64C0E3FFF40E65C0E3FFFF0EE30691
:10155400FF0EE328D8A4B1EF0AF0B3EF0AF018EFB6
:101564000AF0D6EF0AF0E60EE3CFD9FFE70EE3CF99
:10157400DAFF300EDF6EE60EE350010F626EE60E08
:1015840062C0E3FF626AE70EE3506220626EE70E18
:1015940062C0E3FFE150F50FD96EE250DA6EFF0E40
:1015A400DA22DE06000EDD5AF50EE3CF62F0F60E07
:1015B400E3506210D8A4E1EF0AF0E3EF0AF0B5EFCC
:1015C4000AF08CEF0CF0F50EE3CF62F0F60EE35068
:1015D4006210D8A4F0EF0AF0F2EF0AF013EF0BF068
:1015E400F10EE3500DE1F20EE3500AE1F30EE35085
:1015F40007E1F40EE350D8A402EF0BF004EF0BF074
:1016040013EF0BF0F50EE350010F626EF50E62C09E
:10161400E3FF626AF60EE3506220626EF60E62C069
:10162400E3FFFF0EE3506C6E6D6AF50EE3506C5CE5
:101634006D50800A626EF60EE350800A6258D8B08C
:1016440026EF0BF028EF0BF030EF0BF0F50EE3CFA5
:1016540062F0FF0E62C0E3FF51EF0BF0FF0EE350A8
:101664006C6E6D6AF50EE3CF62F06C50625CF60E40
:10167400E350800A626E6D50800A6258D8B045EF1C
:101684000BF047EF0BF051EF0BF0FF0EE3506C6ED5
:101694006D6AF50E6CC0E3FFF60E6DC0E3FFF70E46
:1016A400E3CF62F0F80EE3506210D8B45CEF0BF0B5
:1016B4005EEF0BF074EF0BF0F90EE3CF6DF0030E59
:1016C4006D16D8B468EF0BF06AEF0BF074EF0BF003
:1016D400E150F70FD96EE250DA6EFF0EDA22DE0621
:1016E400000EDD5AFA0EE3AC7AEF0BF07CEF0BF050
:1016F400ACEF0BF0E150F50FD96EE250DA6EFF0E4D
:10170400DA22F70EE350DE5CDE50800A626EF80ED9
:10171400E350800A6258D8B092EF0BF094EF0BF0CC
:10172400A8EF0BF0F70EE350626EF50EE350625E25
:10173400F70E62C0E3FFF80EE350626EF60EE3505C
:10174400625AF80E62C0E3FFACEF0BF0F70EE36AE7
:10175400F80EE36AFF0EE3506C6E6D6AF70EE35009
:101764006C5C6D50800A626EF80EE350800A625819
:10177400D8B0BFEF0BF0C1EF0BF0D7EF0BF0FF0EBB
:10178400E3506C6E6D6AF70EE3CF62F06C50625EEC
:10179400F70E62C0E3FFF80EE3CF62F06D50625AB9
:1017A400F80E62C0E3FFDBEF0BF0F70EE36AF80E0E
:1017B400E36AF90EE3A4E1EF0BF0E3EF0BF03FEF84
:1017C4000CF0F90EE3CF6DF0030E6D16D8B4EDEF07
:1017D4000BF0EFEF0BF006EF0CF0E60EE3CFD9FFC2
:1017E400E70EE3CFDAFF2D0EDF6EE60EE350010FB6
:1017F400626EE60E62C0E3FF626AE70EE3506220A7
:10180400626EE70E62C0E3FFF70EE3CF62F0F80EFC
:10181400E3506210D8B411EF0CF013EF0CF08CEF1E
:101824000CF0E60EE3CFD9FFE70EE3CFDAFF300E7C
:10183400DF6EE60EE350010F626EE60E62C0E3FF58
:10184400626AE70EE3506220626EE70E62C0E3FF55
:10185400E150F70FD96EE250DA6EFF0EDA22DE069F
:10186400000EDD5ADE50DE10D8A43BEF0CF03DEF45
:101874000CF013EF0CF08CEF0CF0F70EE3CF62F0EA
:10188400F80EE3506210D8B44AEF0CF04CEF0CF0B1
:1018940076EF0CF0E60EE3CFD9FFE70EE3CFDAFFE5
:1018A400200EDF6EE60EE350010F626EE60E62C09C
:1018B400E3FF626AE70EE3506220626EE70E62C0E5
:1018C400E3FFE150F70FD96EE250DA6EFF0EDA2231
:1018D400DE06000EDD5ADE50DE10D8A474EF0CF0E4
:1018E40076EF0CF04CEF0CF0F90EE3CF6DF0030E35
:1018F4006D16D8B480EF0CF082EF0CF08CEF0CF086
:10190400E60EE3CFD9FFE70EE3CFDAFF2D0EDF6E4D
:1019140081EF03F0E150E40FD96EE250DA6EFF0E6E
:10192400DA22DFCF6CF0010EDE26DFCF6DF0000E81
:10193400DD226CC0F6FF6DC0F7FF0800FF0EF5CF87
:10194400E3FFFF0EE350D8A4AAEF0CF0ACEF0CF0C9
:101954006CEF03F0E60EE3CFD9FFE70EE3CFDAFF37
:10196400000EDF6EE90EE126FF0EE222E552E7509B
:10197400E15E000EE25A1200E652E652E652E652E8
:10198400FB0EE124D96EFF0EE220DA6EDF506D6E9D
:10199400800E6D16FF0E6DC0E3FFFB0EE124D96EC1
:1019A400FF0EE220DA6EDF506D6ED8906D346C6EEF
:1019B400FD0E6CC0E3FFFA0EE124D96EFF0EE220A7
:1019C400DA6EDFAEE8EF0CF0EAEF0CF0ECEF0CF0BF
:1019D400FD0EE380FD0EE350D8B4F3EF0CF0F5EF09
:1019E4000CF01EEF0DF0FD0EE328D8A4FCEF0CF074
:1019F400FEEF0CF012EF0DF0000E6A6E000E6B6E2F
:101A0400000E6C6E000E6D6EF80E6AC0E3FFF90EE8
:101A14006BC0E3FFFA0E6CC0E3FFFB0E6DC0E3FF87
:101A2400FA0EE38EFB0EE124D96EFF0EE220DA6E8D
:101A3400000EDF6E32EF0DF0000E6A6E000E6B6E5C
:101A4400000E6C6E000E6D6EF80E6AC0E3FFF90EA8
:101A54006BC0E3FFFA0E6CC0E3FFFB0E6DC0E3FF47
:101A6400F70EE124D96EFF0EE220DA6EDF506D6EC0
:101A7400800E6D16FE0E6DC0E3FFE150FE0FD96EB1
:101A8400E250DA6EFF0EDA22FF0EE350DE18D8B40D
:101A94004EEF0DF050EF0DF052EF0DF0FF0EE38C12
:101AA400F70EE124D96EFF0EE220DA6EDF506D6E80
:101AB400D8906D346C6EFE0E6CC0E3FFF60EE1241C
:101AC400D96EFF0EE220DA6EDFAE6BEF0DF06DEF34
:101AD4000DF06FEF0DF0FE0EE380FE0EE350D8B470
:101AE40076EF0DF078EF0DF0A1EF0DF0FE0EE32888
:101AF400D8A47FEF0DF081EF0DF095EF0DF0000EFF
:101B04006A6E000E6B6E000E6C6E000E6D6EF40E3F
:101B14006AC0E3FFF50E6BC0E3FFF60E6CC0E3FF93
:101B2400F70E6DC0E3FFF60EE38EF70EE124D96ED7
:101B3400FF0EE220DA6E000EDF6EB5EF0DF0000E40
:101B44006A6E000E6B6E000E6C6E000E6D6EF40EFF
:101B54006AC0E3FFF50E6BC0E3FFF60E6CC0E3FF53
:101B6400F70E6DC0E3FFE150FE0FD96EE250DA6E5E
:101B7400FF0EDA22FD0EE350DE5CD8B0C4EF0DF0A8
:101B8400C6EF0DF05AEF0EF0FF0EE3ACCCEF0DF004
:101B9400CEEF0DF0D0EF0DF0FF0EE37EFD0EE3CFA0
:101BA40062F0FC0E62C0E3FFFE0EE3CF62F0FD0EB6
:101BB40062C0E3FFFC0EE3CF62F0FE0E62C0E3FFFF
:101BC400F80EE3CF62F0FC0E62C0E3FFF40EE3CF45
:101BD40062F0F80E62C0E3FFFC0EE3CF62F0F40E95
:101BE40062C0E3FFF90EE124D96EFF0EE220DA6E43
:101BF400DF506D6EFC0E6DC0E3FFF50EE124D96E6F
:101C0400FF0EE220DA6EF90EE124E96EFF0EE22007
:101C1400EA6EDFCFEFFFF50EE124D96EFF0EE2206E
:101C2400DA6EFC0EE3CFDFFFFA0EE124D96EFF0E6D
:101C3400E220DA6EDF506D6EFC0E6DC0E3FFF60E2F
:101C4400E124D96EFF0EE220DA6EFA0EE124E96E89
:101C5400FF0EE220EA6EDFCFEFFFF60EE124D96E2D
:101C6400FF0EE220DA6EFC0EE3CFDFFFFB0EE12471
:101C7400D96EFF0EE220DA6EDF506D6EFC0E6DC081
:101C8400E3FFF70EE124D96EFF0EE220DA6EFB0EBD
:101C9400E124E96EFF0EE220EA6EDFCFEFFFF70EDC
:101CA400E124D96EFF0EE220DA6EFC0EE3CFDFFFF3
:101CB400FC0EE36AFE0EE3506C6E6D6AFD0EE3509B
:101CC4006C5E000E6D5A6DBE71EF0EF06D5009E141
:101CD4001A0E6C5CD8A071EF0EF073EF0EF0DCEF0F
:101CE4000EF0F80EE3500DE1F90EE3500AE1FA0E9E
:101CF400E35007E1FB0EE350D8A483EF0EF087EF27
:101D04000EF06D6A6D2A88EF0EF06D6AFC0E6DC0E0
:101D1400E3FFF80EE36AF90EE36AFA0EE36AFB0ED8
:101D2400E36AFE0EE3CF62F0FD0E62C0E3FFEDEF67
:101D34000EF0FC0EE3A0A1EF0EF0A3EF0EF0AFEF58
:101D44000EF0FC0EE3CF6DF0D8906D32010E6D12E3
:101D5400FC0E6DC0E3FFB8EF0EF0E150FC0FD96E3E
:101D6400E250DA6EFF0EDA22D890DF32F80EE3A0EA
:101D7400BEEF0EF0C0EF0EF0C2EF0EF0FC0EE38EDD
:101D8400010E6D6EE150F80FD96EE250DA6EFF0E5F
:101D9400DA226D28DE52D7EF0EF0DE52D890DCBE88
:101DA400D880DD32DD32DD32DE32E82ECFEF0EF0C8
:101DB400FD0EE32AE150FD0FD96EE250DA6EFF0EFC
:101DC400DA22FE0EE350DE5CD8A0EBEF0EF0EDEF6E
:101DD4000EF09BEF0EF0FF0EE3BCF3EF0EF0F5EF09
:101DE4000EF077EF0FF0FD0EE350D8A4FCEF0EF0E9
:101DF400FEEF0EF008EF0FF0000E626E000E636E41
:101E0400000E646E000E656E2DEF11F0F80EE350B7
:101E1400626EF40EE3506226F80E62C0E3FFF90E20
:101E2400E350626EF50EE3506222F90E62C0E3FFE6
:101E3400FA0EE350626EF60EE3506222FA0E62C0AE
:101E4400E3FFFB0EE350626EF70EE3506222FB0EDB
:101E540062C0E3FFFB0EE3A032EF0FF034EF0FF0AC
:101E640061EF10F0FC0EE3A03AEF0FF03CEF0FF03F
:101E740048EF0FF0FC0EE3CF6DF0D8906D32010EF9
:101E84006D12FC0E6DC0E3FF51EF0FF0E150FC0F3B
:101E9400D96EE250DA6EFF0EDA22D890DF32F80EF5
:101EA400E3A057EF0FF059EF0FF05BEF0FF0FC0ECC
:101EB400E38E010E6D6EE150F80FD96EE250DA6ECA
:101EC400FF0EDA226D28DE5270EF0FF0DE52D8904A
:101ED400DCBED880DD32DD32DD32DE32E82E68EF62
:101EE4000FF0FD0EE32A61EF10F0E150F80FD96E08
:101EF400E250DA6EFF0EDA22F40EE350DE5CF50EE9
:101F0400E350DE58F60EE350DE58DE50800A626E6F
:101F1400F70EE350800A6258D8B093EF0FF095EFB4
:101F24000FF0E5EF0FF0F40EE3CF6AF0F50EE3CF18
:101F34006BF0F60EE3CF6CF0F70EE3CF6DF0F80E16
:101F4400E3506A5EF90EE3506B5AFA0EE3506C5A92
:101F5400FB0EE3506D5AFF0E6A24666EFF0E6B2073
:101F6400676EFF0E6C20686EFF0E6D20696EF80EB2
:101F740066C0E3FFF90E67C0E3FFFA0E68C0E3FF33
:101F8400FB0E69C0E3FFFF0EE37EFC0EE350000886
:101F94006D6EFC0E6DC0E3FFFC0EE350D8A4D5EFCC
:101FA4000FF0D7EF0FF0F8EF0FF0E150F80FD96E04
:101FB400E250DA6EFF0EDA22DE2A000EDE22DE2284
:101FC400DE22F8EF0FF0E150F80FD96EE250DA6E2E
:101FD400FF0EDA22F40EE350DE5EF50EE350DE5A15
:101FE400F60EE350DE5AF70EE350DE5AF80EE350D5
:101FF4000DE1F90EE3500AE1FA0EE35007E1FB0E9E
:10200400E350D8A408EF10F00AEF10F059EF10F0E5
:10201400FC0EE350D8A411EF10F013EF10F059EFB9
:1020240010F0000E626E000E636E000E646E000E01
:10203400656E2DEF11F0D890F80EE336F90EE33605
:10204400FA0EE336FB0EE336FC0EE3AE2CEF10F093
:102054002EEF10F030EF10F0F80EE380FC0EE3A04A
:1020640036EF10F038EF10F045EF10F0FC0EE3CF30
:102074006DF0D8906D346C6E010E6C12FC0E6CC059
:10208400E3FF4EEF10F0E150FC0FD96EE250DA6E30
:10209400FF0EDA22D890DF36FD0EE350D8B455EFA8
:1020A40010F057EF10F059EF10F0FD0EE306FA0EA2
:1020B400E3AE5FEF10F061EF10F01DEF10F0FE0ED5
:1020C400E36AFC0EE3AE69EF10F06BEF10F086EFFD
:1020D40010F0FC0EE3CF6DF07F0E6D16D8B475EFE3
:1020E40010F077EF10F07CEF10F0FE0EE36AE32AB5
:1020F40086EF10F0F80EE3A082EF10F084EF10F0FA
:1021040086EF10F077EF10F0FE0EE350D8B48DEFA9
:1021140010F08FEF10F0C6EF10F0E150F80FD96E09
:10212400E250DA6EFF0EDA22DE2A000EDE22DE2212
:10213400DE22FB0EE3A0A1EF10F0A3EF10F0C6EF38
:1021440010F0010E6D6EE150F80FD96EE250DA6EA8
:10215400FF0EDA226D28DE52B8EF10F0DE52D8906E
:10216400DCBED880DD32DD32DD32DE32E82EB0EF87
:1021740010F0FD0EE328D8B4C2EF10F0C4EF10F055
:10218400C6EF10F0FD0EE32AFD0EE328D8B4CDEF20
:1021940010F0CFEF10F0D8EF10F0FD0EE350D8A4FC
:1021A400D6EF10F0D8EF10F0EBEF10F0F80EE36A72
:1021B400F90EE36AFA0EE36AFB0EE36AFD0EE350DE
:1021C400D8A4E7EF10F0E9EF10F0EBEF10F0FF0EFA
:1021D400E36AFD0EE3A0F1EF10F0F3EF10F0FDEF72
:1021E40010F0FA0EE124D96EFF0EE220DA6E000E32
:1021F400DB8E05EF11F0FA0EE124D96EFF0EE2201A
:10220400DA6E7F0EDF16FB0EE124D96EFF0EE2209C
:10221400DA6EFD0EE3CF6DF0D8906D30DF6EFF0EF9
:10222400E3AE17EF11F019EF11F021EF11F0FB0EEF
:10223400E124D96EFF0EE220DA6E000EDB8EF80E7A
:10224400E3CF62F0F90EE3CF63F0FA0EE3CF64F06C
:10225400FB0EE3CF65F0F40EE126FF0EE22212003E
:102264000D0EE126000EE222F20EE124D96EFF0EDD
:10227400E220DA6EDF506D6E800E6D16FF0E6DC0BB
:10228400E3FFF20EE124D96EFF0EE220DA6EDF5096
:102294006D6ED8906D346C6EFD0E6CC0E3FFF10E64
:1022A400E124D96EFF0EE220DA6EDFAE5CEF11F0AE
:1022B4005EEF11F060EF11F0FD0EE380FD0EE350D0
:1022C400D8B467EF11F069EF11F08AEF11F0FD0E49
:1022D400E328D8A470EF11F072EF11F086EF11F03B
:1022E400000E6A6E000E6B6E000E6C6E000E6D6E4C
:1022F400EF0E6AC0E3FFF00E6BC0E3FFF10E6CC09B
:10230400E3FFF20E6DC0E3FFF10EE38E9EEF11F0DA
:10231400000E6A6E000E6B6E000E6C6E000E6D6E1B
:10232400EF0E6AC0E3FFF00E6BC0E3FFF10E6CC06A
:10233400E3FFF20E6DC0E3FFEE0EE124D96EFF0E53
:10234400E220DA6EDF506D6E800E6D16E150FF0FE5
:10235400D96EE250DA6EFF0EDA226D50DF1AEE0EFD
:10236400E124D96EFF0EE220DA6EDF506D6ED89054
:102374006D346C6EFE0E6CC0E3FFED0EE124D96E7D
:10238400FF0EE220DA6EDFAECAEF11F0CCEF11F0EF
:10239400CEEF11F0FE0EE380FE0EE350D8B4D5EF7D
:1023A40011F0D7EF11F0F8EF11F0FE0EE328D8A4E6
:1023B400DEEF11F0E0EF11F0F4EF11F0000E6A6EB1
:1023C400000E6B6E000E6C6E000E6D6EEB0E6AC02E
:1023D400E3FFEC0E6BC0E3FFED0E6CC0E3FFEE0E0B
:1023E4006DC0E3FFED0EE38E0CEF12F0000E6A6E8B
:1023F400000E6B6E000E6C6E000E6D6EEB0E6AC0FE
:10240400E3FFEC0E6BC0E3FFED0E6CC0E3FFEE0EDA
:102414006DC0E3FFFE0EE350D8B413EF12F015EFD6
:1024240012F01EEF12F0FD0EE350D8A41CEF12F0D0
:102434001EEF12F028EF12F0000E626E000E636EB3
:10244400000E646E000E656E5AEF15F0EF0EE3CFCA
:102454006DF0ED0EE124D96EFF0EE220DA6EDF504E
:102464006D02FB0EF3CFE3FFFC0EF4CFE3FFFB0E94
:10247400E3CF6DF06DC066F0676A686A696AF70E4B
:1024840066C0E3FFF80E67C0E3FFF90E68C0E3FF20
:10249400FA0E69C0E3FFFC0EE124D96EFF0EE220C0
:1024A400DA6EDF506D6E6DC066F0676A686A696ADD
:1024B400F30E66C0E3FFF40E67C0E3FFF50E68C0D9
:1024C400E3FFF60E69C0E3FFF00EE124D96EFF0EC0
:1024D400E220DA6EDF506D6EEC0EE124D96EFF0E51
:1024E400E220DA6EDF506D02FB0EF3CFE3FFFC0E49
:1024F400F4CFE3FFE150F70FD96EE250DA6EFF0E2E
:10250400DA22FB0EE350DE26000EDE22DE22DE227D
:10251400E150F30FD96EE250DA6EFF0EDA22FC0EB0
:10252400E124E96EFF0EE220EA6EEF50DE26000E93
:10253400DE22DE22DE22F10EE124D96EFF0EE2203D
:10254400DA6EDF506D6EEB0EE3506D02FB0EF3CFCF
:10255400E3FFFC0EF4CFE3FFE150F70FD96EE25036
:10256400DA6EFF0EDA22FB0EE350DE26000EDE22C8
:10257400DE22DE22E150F30FD96EE250DA6EFF0E56
:10258400DA22FC0EE124E96EFF0EE220EA6EEF503F
:10259400DE26000EDE22DE22DE22E150F70FD96EA7
:1025A400E250DA6EFF0EDA22080ED890DE36DE36FE
:1025B400DE36DD36DD52DD52E82ED7EF12F0F00EB6
:1025C400E124D96EFF0EE220DA6EDF506D6EEB0E61
:1025D400E3506D02FB0EF3CFE3FFFC0EF4CFE3FFF9
:1025E400FB0EE3CF6CF0FC0EE3CF6DF0E150F70F80
:1025F400D96EE250DA6EFF0EDA226C50DE266D5090
:10260400DE22000EDE22DE22EF0EE3CF6DF0EC0EB2
:10261400E124D96EFF0EE220DA6EDF506D02FB0E6C
:10262400F3CFE3FFFC0EF4CFE3FFFB0EE3CF6CF03C
:10263400FC0EE3CF6DF0E150F70FD96EE250DA6E85
:10264400FF0EDA226C50DE266D50DE22000EDE22F2
:10265400DE22E150F70FD96EE250DA6EFF0EDA2275
:10266400080ED890DE36DE36DE36DD36DD52DD523B
:10267400E82E33EF13F0EF0EE3CF6DF0EB0EE350E3
:102684006D02FB0EF3CFE3FFFC0EF4CFE3FFFB0E72
:10269400E3CF6CF0FC0EE3CF6DF0E150F70FD96E91
:1026A400E250DA6EFF0EDA226C50DE266D50DE2226
:1026B400000EDE22DE22F00EE124D96EFF0EE220AF
:1026C400DA6EDF506D6EED0EE124D96EFF0EE2205E
:1026D400DA6EDF506D02FB0EF3CFE3FFFC0EF4CF96
:1026E400E3FFFB0EE3CF6CF0FC0EE3CF6DF0E150A3
:1026F400F30FD96EE250DA6EFF0EDA226C50DE264A
:102704006D50DE22000EDE22DE22F10EE124D96EAF
:10271400FF0EE220DA6EDF506D6EEC0EE124D96E0E
:10272400FF0EE220DA6EDF506D02FB0EF3CFE3FF03
:10273400FC0EF4CFE3FFFB0EE3CF6CF0FC0EE3CF13
:102744006DF0E150F30FD96EE250DA6EFF0EDA222B
:102754006C50DE266D50DE22000EDE22DE22F10EEB
:10276400E124D96EFF0EE220DA6EDF506D6EED0EBD
:10277400E124D96EFF0EE220DA6EDF506D02FB0E0B
:10278400F3CFE3FFFC0EF4CFE3FFFB0EE3CF6CF0DB
:10279400FC0EE3CF6DF06C50666E6D50676E686A28
:1027A400696A68C069F067C068F066C067F0666A05
:1027B400E150F30FD96EE250DA6EFF0EDA22665062
:1027C400DE266750DE226850DE226950DE22E150A8
:1027D400F30FD96EE250DA6EFF0EDA22FA0EE1241C
:1027E400E96EFF0EE220EA6EEF50DE26000EDE22D6
:1027F400DE22DE22E150F70FD96EE250DA6EFF0ED0
:10280400DA22080ED890DE36DE36DE36DD36DD52CC
:10281400DD52E82E04EF14F0820E6C6EFF0E6D6E26
:10282400FD0EE3506A6E6B6AFE0EE3506A26000EDC
:102834006B226C506A266D506B22FB0E6AC0E3FF5C
:10284400FC0E6BC0E3FF4DEF14F0D890F30EE336AB
:10285400F40EE336F50EE336F60EE336FA0EE3AE87
:1028640036EF14F038EF14F03AEF14F0F30EE3807F
:10287400D890F70EE336F80EE336F90EE336FA0E87
:10288400E336E150FB0FD96EE250DA6EFF0EDA2226
:10289400DE06000EDD5AF50EE3AE53EF14F055EFED
:1028A40014F027EF14F0FE0EE36AFA0EE3AE5DEFC8
:1028B40014F05FEF14F08CEF14F0E150F70FD96EC1
:1028C400E250DA6EFF0EDA22FF0EDE146A6EFF0E9D
:1028D400DE146B6EFF0EDE146C6E7F0EDE146D6EF6
:1028E4006A506B106C106D10D8B47BEF14F07DEF50
:1028F40014F082EF14F0FE0EE36AE32A8CEF14F076
:10290400F30EE3A088EF14F08AEF14F08CEF14F0C8
:102914007DEF14F0FE0EE350D8B493EF14F095EF6E
:1029240014F0D0EF14F0E150F30FD96EE250DA6EE8
:10293400FF0EDA22DE2A000EDE22DE22DE22F60E70
:10294400E3A0A7EF14F0A9EF14F0D0EF14F0010EF8
:102954006D6EE150F30FD96EE250DA6EFF0EDA229B
:102964006D28DE52BEEF14F0DE52D890DCBED88063
:10297400DD32DD32DD32DE32E82EB6EF14F0FB0E4E
:10298400E350010F626EFB0E62C0E3FF626AFC0E4D
:10299400E3506220626EFC0E62C0E3FFFC0EE3BEF5
:1029A400DEEF14F0FC0EE35009E1FB0EE328D8A09F
:1029B400DEEF14F0E0EF14F0F6EF14F0000E6A6EA0
:1029C400000E6B6E800E6C6E7F0E6D6EF30E6AC021
:1029D400E3FFF40E6BC0E3FFF50E6CC0E3FFF60EED
:1029E4006DC0E3FF43EF15F0FC0EE3BE06EF15F0F8
:1029F400FC0EE35007E1FB0EE304D8B004EF15F03E
:102A040006EF15F012EF15F0F30EE36AF40EE36A25
:102A1400F50EE36AF60EE36AFF0EE36A43EF15F080
:102A2400FB0EE3CF62F0FD0E62C0E3FFE150F30F53
:102A3400D96EE250DA6EFF0EDA22FF0EDE16FF0EBA
:102A4400DE167F0EDE16000EDE16FD0EE3A02DEF61
:102A540015F02FEF15F037EF15F0F50EE124D96ED0
:102A6400FF0EE220DA6E000EDB8EF60EE124D96E44
:102A7400FF0EE220DA6EFD0EE3CF6DF0D8906D30DC
:102A8400DF6EFF0EE3CF6DF0F60EE124D96EFF0E7C
:102A9400E220DA6E6D50DF12F30EE3CF62F0F40E33
:102AA400E3CF63F0F50EE3CF64F0F60EE3CF65F009
:102AB400EB0EE126FF0EE22212000D0EE126000EBF
:102AC400E222F20EE124D96EFF0EE220DA6EDF502C
:102AD4006D6E800E6D16FF0E6DC0E3FFF20EE124E5
:102AE400D96EFF0EE220DA6EDF506D6ED8906D3431
:102AF4006C6EFE0E6CC0E3FFF10EE124D96EFF0E86
:102B0400E220DA6EDFAE89EF15F08BEF15F08DEF72
:102B140015F0FE0EE380FE0EE350D8B494EF15F0EA
:102B240096EF15F0BFEF15F0FE0EE328D8A49DEF45
:102B340015F09FEF15F0B3EF15F0000E6A6E000E5E
:102B44006B6E000E6C6E000E6D6EEF0E6AC0E3FFCE
:102B5400F00E6BC0E3FFF10E6CC0E3FFF20E6DC02C
:102B6400E3FFF10EE38EF20EE124D96EFF0EE220B4
:102B7400DA6E000EDF6ED3EF15F0000E6A6E000EF3
:102B84006B6E000E6C6E000E6D6EEF0E6AC0E3FF8E
:102B9400F00E6BC0E3FFF10E6CC0E3FFF20E6DC0EC
:102BA400E3FFEE0EE124D96EFF0EE220DA6EDF5071
:102BB4006D6E800E6D16E150FF0FD96EE250DA6E25
:102BC400FF0EDA226D50DF1AEE0EE124D96EFF0EED
:102BD400E220DA6EDF506D6ED8906D346C6EFD0EAF
:102BE4006CC0E3FFED0EE124D96EFF0EE220DA6E35
:102BF400DFAEFFEF15F001EF16F003EF16F0FD0E58
:102C0400E380FD0EE350D8B40AEF16F00CEF16F093
:102C140035EF16F0FD0EE328D8A413EF16F015EFE8
:102C240016F029EF16F0000E6A6E000E6B6E000EA1
:102C34006C6E000E6D6EEB0E6AC0E3FFEC0E6BC0A3
:102C4400E3FFED0E6CC0E3FFEE0E6DC0E3FFED0E8F
:102C5400E38EEE0EE124D96EFF0EE220DA6E000E52
:102C6400DF6E49EF16F0000E6A6E000E6B6E000EFA
:102C74006C6E000E6D6EEB0E6AC0E3FFEC0E6BC063
:102C8400E3FFED0E6CC0E3FFEE0E6DC0E3FFEB0E51
:102C9400E3500DE1EC0EE3500AE1ED0EE35007E1E1
:102CA400EE0EE350D8A459EF16F05BEF16F086EF62
:102CB40016F0EF0EE36AF00EE36AF10EE36AF20E29
:102CC400E36AF10EE124D96EFF0EE220DA6E800E83
:102CD400DE127F0EDD12FF0EE3CF6DF0F20EE12463
:102CE400D96EFF0EE220DA6E6D50DF12EF0EE3CFE5
:102CF40062F0F00EE3CF63F0F10EE3CF64F0F20E76
:102D0400E3CF65F06FEF18F0FE0EE350D8A48DEF1B
:102D140016F08FEF16F099EF16F0000E626E000EAB
:102D2400636E000E646E000E656E6FEF18F0FE0E9B
:102D3400E3506C6E6D6AFD0EE3506C5E000E6D5ACE
:102D44007F0E6C26000E6D22FB0E6CC0E3FFFC0EA2
:102D54006DC0E3FFEF0EE3CF6AF0F00EE3CF6BF04C
:102D6400F10EE3CF6CF0F20EE3CF6DF0F70E6AC014
:102D7400E3FFF80E6BC0E3FFF90E6CC0E3FFFA0E3D
:102D84006DC0E3FFEF0EE36AF00EE36AF10EE36A4F
:102D9400F20EE36AF30EE36AF40EE36AF50EE36AF5
:102DA400F60EE36AFD0EE36A37EF17F0FD0EE3500B
:102DB400D8B4DFEF16F0E1EF16F006EF17F0D89075
:102DC400F70EE336F80EE336F90EE336FA0EE33681
:102DD400D890EF0EE336F00EE336F10EE336F20E42
:102DE400E336F60EE3AEF9EF16F0FBEF16F0FDEF67
:102DF40016F0EF0EE380D890F30EE336F40EE336CC
:102E0400F50EE336F60EE336E150F70FD96EE250D5
:102E1400DA6EFF0EDA22EB0EE350DE5CEC0EE350CA
:102E2400DE58ED0EE350DE58EE0EE350DE58D8A027
:102E34001EEF17F020EF17F035EF17F0F60EE38CC6
:102E4400E150F70FD96EE250DA6EFF0EDA22EB0E84
:102E5400E350DE5EEC0EE350DE5AED0EE350DE5A34
:102E6400EE0EE350DE5AFD0EE32AFD0EE3CF62F0D0
:102E7400190E626440EF17F042EF17F0D8EF16F026
:102E8400F70EE3500FE1F80EE3500CE1F90EE350B6
:102E940009E1FA0EE350D8B452EF17F054EF17F0EB
:102EA4007EEF17F0F30EE3807EEF17F0D890EF0E6D
:102EB400E336F00EE336F10EE336F20EE336F60EA9
:102EC400E3AE67EF17F069EF17F06BEF17F0EF0E53
:102ED400E380D890F30EE336F40EE336F50EE336D2
:102EE400F60EE336E150FB0FD96EE250DA6EFF0EB8
:102EF400DA22DE06000EDD5AF10EE3AE84EF17F09F
:102F040086EF17F058EF17F0FD0EE36AF60EE3AE06
:102F14008EEF17F090EF17F0BDEF17F0E150F30FBD
:102F2400D96EE250DA6EFF0EDA22FF0EDE146A6EFC
:102F3400FF0EDE146B6EFF0EDE146C6E7F0EDE145D
:102F44006D6E6A506B106C106D10D8B4ACEF17F046
:102F5400AEEF17F0B3EF17F0FD0EE36AE32ABDEF0F
:102F640017F0EF0EE3A0B9EF17F0BBEF17F0BDEFCA
:102F740017F0AEEF17F0FD0EE350D8B4C4EF17F01E
:102F8400C6EF17F001EF18F0E150EF0FD96EE250E1
:102F9400DA6EFF0EDA22DE2A000EDE22DE22DE22C6
:102FA400F20EE3A0D8EF17F0DAEF17F001EF18F004
:102FB400010E6D6EE150EF0FD96EE250DA6EFF0E26
:102FC400DA226D28DE52EFEF17F0DE52D890DCBE25
:102FD400D880DD32DD32DD32DE32E82EE7EF17F065
:102FE400FB0EE350010F626EFB0E62C0E3FF626AE8
:102FF400FC0EE3506220626EFC0E62C0E3FFFC0E26
:10300400E3BE0FEF18F0FC0EE35009E1FB0EE328DA
:10301400D8A00FEF18F011EF18F023EF18F0FF0EFF
:103024006C6E000E6D6EFB0E6CC0E3FFFC0E6DC08B
:10303400E3FFEF0EE36AF00EE36AF10EE36AF20EC9
:10304400E36AFC0EE3BE33EF18F0FC0EE35007E135
:10305400FB0EE304D8B031EF18F033EF18F041EF72
:1030640018F0FB0EE36AFC0EE36AEF0EE36AF00E5F
:10307400E36AF10EE36AF20EE36AFF0EE36AFB0E03
:10308400E3CF62F0FE0E62C0E3FFFE0EE3A04DEF5D
:1030940018F04FEF18F059EF18F0F10EE124D96E43
:1030A400FF0EE220DA6E000EDB8E61EF18F0F10EF7
:1030B400E124D96EFF0EE220DA6E7F0EDF16F20EE7
:1030C400E124D96EFF0EE220DA6EFE0EE3CF6DF03E
:1030D400D8906D30DF6E6DEF16F0EB0EE126FF0E2B
:1030E400E2221200F29E23EE4AF0DECF6CF0DDCF36
:1030F4006DF0710E6C02F3CF6AF0F4CF6BF06D02D9
:10310400F3506B26A60E6A24D96E000E6B20DA6E7D
:10311400020EDE18D8A491EF18F093EF18F0A8EF80
:1031240019F023EE4AF0DECF6CF0DDCF6DF0710EB6
:103134006C02F3CF6AF0F4CF6BF06D02F3506B26A0
:10314400A60E6A24D96E000E6B20DA6EFF0EE3CF52
:10315400DFFF23EE4AF0DECF6CF0DDCF6DF0710EB1
:103164006C02F3CF6AF0F4CF6BF06D02F3506B2670
:103174000C0E6A24D96E010E6B20DA6EE8CFDFFFE5
:1031840023EE4AF0DECF6CF0DDCF6DF0710E6C02F1
:10319400F3CF6AF0F4CF6BF06D02F3506B260D0E93
:1031A4006A24D96E010E6B20DA6ED8CFDFFF23EECE
:1031B4004AF0DECF6CF0DDCF6DF0710E6C02F3CF10
:1031C4006AF0F4CF6BF06D02F3506B260E0E6A2496
:1031D400D96E010E6B20DA6EE0CFDFFF036A046A5A
:1031E40087EF19F003C06CF004C06DF0030E6C029D
:1031F400F3CF6AF0F4CF6BF06D02F3506B2623EE3D
:103204004AF0DECF6CF0DDCF6DF0710E6C02F3CFBF
:1032140068F0F4CF69F06D02F3506926A20E6C6E6B
:10322400000E6D6E070E6C26000E6D2268506C2623
:1032340069506D226A506C24D96E6B506D20DA6E21
:10324400FFCFDFFF03C06CF004C06DF0030E6C020F
:10325400F3CF6AF0F4CF6BF06D02F3506B2623EEDC
:103264004AF0DECF6CF0DDCF6DF0710E6C02F3CF5F
:1032740068F0F4CF69F06D02F3506926A20E6C6E0B
:10328400000E6D6E090E6C26000E6D2268506C26C1
:1032940069506D226A506C24D96E6B506D20DA6EC1
:1032A400FECFDFFF03C06CF004C06DF0030E6C02B0
:1032B400F3CF6AF0F4CF6BF06D02F3506B2623EE7C
:1032C4004AF0DECF6CF0DDCF6DF0710E6C02F3CFFF
:1032D40068F0F4CF69F06D02F3506926A20E6C6EAB
:1032E400000E6D6E080E6C26000E6D2268506C2662
:1032F40069506D226A506C24D96E6B506D20DA6E61
:10330400FDCFDFFF034A042A0600FC50D8A48DEF4A
:1033140019F08FEF19F0F4EF18F023EE4AF0DECF36
:103324006CF0DDCF6DF0710E6C02F3CF6AF0F4CF68
:103334006BF06D02F3506B26A70E6A24D96E000E53
:103344006B20DA6E03C0DEFF04C0DDFF71EC2FF0EA
:1033540062C04AF363C04BF3FC6A23EE4AF0DECF4B
:103364006CF0DDCF6DF0710E6C02F3CF6AF0F4CF28
:103374006BF06D02F3506B26A70E6A24D96E000E13
:103384006B20DA6EDE50DE10D8A4CBEF19F0CDEF4F
:1033940019F0EEEF19F0050023EE4AF0DECF6CF0E1
:1033A400DDCF6DF0710E6C02F3CF6AF0F4CF6BF0E9
:1033B4006D02F3506B260F0E6A24D96E010E6B203A
:1033C400DA6EDECF6CF0DDCF6DF06CC0FDFF6DC04A
:1033D400FEFFFF6AF2EF1AF023EE4AF0DECF6CF044
:1033E400DDCF6DF0710E6C02F3CF6AF0F4CF6BF0A9
:1033F4006D02F3506B260C0E6A24D96E010E6B20FD
:10340400DA6EDF506D6E6D5023EE4AF0DECF6CF055
:10341400DDCF6DF0710E6C02F3CF6AF0F4CF6BF078
:103424006D02F3506B260D0E6A24D96E010E6B20CB
:10343400DA6EDF50D86E23EE4AF0DECF6CF0DDCFCB
:103444006DF0710E6C02F3CF6AF0F4CF6BF06D0285
:10345400F3506B260E0E6A24D96E010E6B20DA6EC1
:10346400DF50E06E23EE4AF0DECF6CF0DDCF6DF07E
:10347400710E6C02F3CF6AF0F4CF6BF06D02F3506F
:103484006B26A70E6A24D96E000E6B20DA6EDECF8F
:103494006CF0DDCF6DF0FF0E6C24036EFF0E6D201B
:1034A400046EE9EF1AF0050003C06CF004C06DF07F
:1034B400030E6C02F3CF6AF0F4CF6BF06D02F3509D
:1034C4006B2623EE4AF0DECF6CF0DDCF6DF0710E8B
:1034D4006C02F3CF68F0F4CF69F06D02F350692603
:1034E400A20E6C6E000E6D6E080E6C26000E6D2220
:1034F40068506C2669506D226A506C24D96E6B50EA
:103504006D20DA6EDF50FD6E03C06CF004C06DF008
:10351400030E6C02F3CF6AF0F4CF6BF06D02F3503C
:103524006B2623EE4AF0DECF6CF0DDCF6DF0710E2A
:103534006C02F3CF68F0F4CF69F06D02F3506926A2
:10354400A20E6C6E000E6D6E090E6C26000E6D22BE
:1035540068506C2669506D226A506C24D96E6B5089
:103564006D20DA6EDF50FE6E03C06CF004C06DF0A7
:10357400030E6C02F3CF6AF0F4CF6BF06D02F350DC
:103584006B2623EE4AF0DECF6CF0DDCF6DF0710ECA
:103594006C02F3CF68F0F4CF69F06D02F350692642
:1035A400A20E6C6E000E6D6E070E6C26000E6D2260
:1035B40068506C2669506D226A506C24D96E6B5029
:1035C4006D20DA6EDF50FF6E0306D8A004060350A8
:1035D4000410D8A4F0EF1AF0F2EF1AF055EF1AF035
:1035E40023EE4AF0DECF6CF0DDCF6DF0710E6C028D
:1035F400F3CF6AF0F4CF6BF06D02F3506B26A60E96
:103604006A24D96E000E6B20DA6E020EDF6EF28E23
:10361400E5521200FF0EE3BE14EF1BF012EF1BF095
:103624001BEF1CF0FF0EE35000086D6EFF0E6DC023
:10363400E3FFFF0EE350800A120FD8A024EF1BF023
:1036440026EF1BF0ACEF1BF00A0EE66E000EE66EE2
:10365400FD0EE3506C6E6D6A6CBE6D066CC0E6FFC9
:103664006DC0E6FFE2EC28F06250040D350EF32441
:10367400F66E060EF420F76E0900F5CFE6FF09009A
:10368400F5CFE6FF0900F5CFE6FF0900F5CFE6FF29
:103694000A0EE66E000EE66E640EE66E000EE66E30
:1036A400F70EE3506C6E6D6A6CBE6D066CC0E6FF7F
:1036B4006DC0E6FFE2EC28F062C0E6FF63C0E6FFFF
:1036C4007DEC27F06250090F040D350EF324F66EDD
:1036D400060EF420F76E0900F5CFE6FF0900F5CFDA
:1036E400E6FF0900F5CFE6FF0900F5CFE6FF640E1B
:1036F400E66E000EE66EF50EE3506C6E6D6A6CBEFF
:103704006D066CC0E6FF6DC0E6FF7DEC27F06250ED
:10371400120F040D350EF324F66E060EF420F76E28
:103724000900F5CFE6FF0900F5CFE6FF0900F5CF64
:10373400E6FF0900F5CFE6FF32EC11F062C0E6FFC8
:1037440063C0E6FF64C0E6FF65C0E6FF32EC11F03B
:1037540019EF1DF0FF0EE350800A750FD8A0B5EFE6
:103764001BF0B7EF1BF004EF1CF00A0EE66E000E20
:10377400E66EFD0EE3506C6E6D6A6CBE6D066CC039
:10378400E6FF6DC0E6FFE2EC28F06250040D350E52
:10379400F324F66E060EF420F76E0900F5CFE6FF6B
:1037A4000900F5CFE6FF0900F5CFE6FF0900F5CFE4
:1037B400E6FF0A0EE66E000EE66EF90EE3506C6E3E
:1037C4006D6A6CBE6D066CC0E6FF6DC0E6FF7DECF5
:1037D40027F06250090F040D350EF324F66E060E21
:1037E400F420F76E0900F5CFE6FF0900F5CFE6FFF8
:1037F4000900F5CFE6FF0900F5CFE6FF32EC11F042
:1038040019EF1DF0FF0EE350040D350EF324F66E90
:10381400060EF420F76E0900F5CF62F00900F5CF2B
:1038240063F00900F5CF64F00900F5CF65F019EFF6
:103834001DF0FF0EE350800A120FD8A024EF1CF0F5
:1038440026EF1CF0ACEF1CF00A0EE66E000EE66EDE
:10385400FD0EE3506C6E6D6A6CBE6D066CC0E6FFC7
:103864006DC0E6FFE2EC28F06250040D010EF32473
:10387400F66E060EF420F76E0900F5CFE6FF090098
:10388400F5CFE6FF0900F5CFE6FF0900F5CFE6FF27
:103894000A0EE66E000EE66E640EE66E000EE66E2E
:1038A400F70EE3506C6E6D6A6CBE6D066CC0E6FF7D
:1038B4006DC0E6FFE2EC28F062C0E6FF63C0E6FFFD
:1038C4007DEC27F06250090F040D010EF324F66E0F
:1038D400060EF420F76E0900F5CFE6FF0900F5CFD8
:1038E400E6FF0900F5CFE6FF0900F5CFE6FF640E19
:1038F400E66E000EE66EF50EE3506C6E6D6A6CBEFD
:103904006D066CC0E6FF6DC0E6FF7DEC27F06250EB
:10391400120F040D010EF324F66E060EF420F76E5A
:103924000900F5CFE6FF0900F5CFE6FF0900F5CF62
:10393400E6FF0900F5CFE6FF32EC11F062C0E6FFC6
:1039440063C0E6FF64C0E6FF65C0E6FF32EC11F039
:1039540019EF1DF0FF0EE350800A750FD8A0B5EFE4
:103964001CF0B7EF1CF004EF1DF00A0EE66E000E1B
:10397400E66EFD0EE3506C6E6D6A6CBE6D066CC037
:10398400E6FF6DC0E6FFE2EC28F06250040D010E84
:10399400F324F66E060EF420F76E0900F5CFE6FF69
:1039A4000900F5CFE6FF0900F5CFE6FF0900F5CFE2
:1039B400E6FF0A0EE66E000EE66EF90EE3506C6E3C
:1039C4006D6A6CBE6D066CC0E6FF6DC0E6FF7DECF3
:1039D40027F06250090F040D010EF324F66E060E53
:1039E400F420F76E0900F5CFE6FF0900F5CFE6FFF6
:1039F4000900F5CFE6FF0900F5CFE6FF32EC11F040
:103A040019EF1DF0FF0EE350040D010EF324F66EC2
:103A1400060EF420F76E0900F5CF62F00900F5CF29
:103A240063F00900F5CF64F00900F5CF65F0E552C5
:103A340012001A0EE126000EE222F40EE66E010ECA
:103A4400E66E2BEC2EF0290EE66E000EE66E32ECDE
:103A54002BF047EC31F0FE0E62C0E3FFFF0E63C0B3
:103A6400E3FF000EE66E000EE66E800EE66E440E78
:103A7400E66E000EE66E000EE66EA00EE66E400EDA
:103A8400E66EF60EE3CF6CF0F70EE3CF6DF06C50FC
:103A9400666E6D50676E686A696A66C0E6FF67C0E5
:103AA400E6FF68C0E6FF69C0E6FF000EE66ED1ECF3
:103AB4001FF062C0E6FF63C0E6FF64C0E6FF65C0B6
:103AC400E6FF32EC11F062C0E6FF63C0E6FF64C0BB
:103AD400E6FF65C0E6FF5FEC15F0FA0E62C0E3FF97
:103AE400FB0E63C0E3FFFC0E64C0E3FFFD0E65C084
:103AF400E3FF000EE66E000EE66EA00EE66E410ECB
:103B0400E66EF60EE3CFE6FFE3CFE6FFE3CFE6FF94
:103B1400E3CFE6FF32EC11F0F60E62C0E3FFF70EDE
:103B240063C0E3FFF80E64C0E3FFF90E65C0E3FF72
:103B340009EC33F0050EE66E010EE66E23EC2FF071
:103B4400910EE66E060EE66E72EC2DF0050EE66E34
:103B5400020EE66E23EC2FF0F60EE3CFE6FFE3CF82
:103B6400E6FFE3CFE6FFE3CFE6FF9B0EE66E060E2D
:103B7400E66EE00EE124626EFF0EE220636E62C028
:103B8400E6FF63C0E6FF080EE66E52EC03F0E60EB5
:103B9400E124626EFF0EE220636E62C0E6FF63C042
:103BA400E6FF72EC2DF0000EE66E000EE66E480E97
:103BB400E66E420EE66EF20EE3CFE6FFE3CFE6FFDB
:103BC400E3CFE6FFE3CFE6FFFCEC25F062B0EDEFD8
:103BD4001DF0EFEF1DF017EF1EF0F60EE3CFE6FF3A
:103BE400E3CFE6FFE3CFE6FFE3CFE6FF000EE66EAA
:103BF400000EE66EC80EE66E410EE66EFCEC25F095
:103C040062B007EF1EF009EF1EF017EF1EF0300E42
:103C1400E66E450EE66E000EE66E41EC24F0050EEF
:103C2400E66E000EE66E3BEC28F0000EE66E000E2B
:103C3400E66EC80EE66E410EE66EF20EE3CFE6FFC8
:103C4400E3CFE6FFE3CFE6FFE3CFE6FFFCEC25F0AE
:103C540062B02FEF1EF031EF1EF059EF1EF0F60E9A
:103C6400E3CFE6FFE3CFE6FFE3CFE6FFE3CFE6FFF4
:103C7400000EE66E000EE66E200EE66E410EE66E57
:103C8400FCEC25F062B049EF1EF04BEF1EF059EF4B
:103C94001EF0310EE66E450EE66E000EE66E41EC49
:103CA40024F0050EE66E000EE66E3BEC28F0000EE6
:103CB400E66E000EE66E200EE66E410EE66EF20E25
:103CC400E3CFE6FFE3CFE6FFE3CFE6FFE3CFE6FF94
:103CD400FCEC25F062B071EF1EF073EF1EF081EF83
:103CE4001EF0320EE66E450EE66E000EE66E41ECF8
:103CF40024F0050EE66E000EE66E3BEC28F08280A2
:103D0400170EE66E000EE66E3BEC28F01FEF1DF07A
:103D1400E60EE126FF0EE2221200060EE126000E58
:103D2400E222F60EE3CF6AF0F70EE3CF6BF0F80E63
:103D3400E3CF6CF0F90EE3CF6DF0180EA7EF1EF091
:103D4400D8906D326C326B326A32E82EA2EF1EF0DC
:103D5400FE0E6AC0E3FFFE0EE350D8A4B4EF1EF0DB
:103D6400B6EF1EF0BDEF1EF0000E626E636A646A69
:103D7400656ACCEF1FF0F20EE3CF6AF0F30EE3CFE7
:103D84006BF0F40EE3CF6CF0F50EE3CF6DF0180E8C
:103D9400D1EF1EF0D8906D326C326B326A32E82E5D
:103DA400CCEF1EF0FF0E6AC0E3FFFF0EE350D8A471
:103DB400DEEF1EF0E0EF1EF0E2EF1EF0B6EF1EF0B5
:103DC400F80EE38EE150F60FD96EE250DA6EFF0E74
:103DD400DA22FF0EDE16FF0EDE16FF0EDE16000ED2
:103DE400DE16F40EE38EE150F20FD96EE250DA6E75
:103DF400FF0EDA22FF0EDE16FF0EDE16FF0EDE16B3
:103E0400000EDE16FA0EE36AFB0EE36AFC0EE36AAA
:103E1400FD0EE36AFE0EE3CF62F07F0E625EFE0EDD
:103E240062C0E3FFA00E6D6EFF0EE3506D246C6E56
:103E3400E150FE0FD96EE250DA6EFF0EDA226C50BA
:103E4400DF5EFF0EE36AE38AD890FA0EE336FB0ED8
:103E5400E336FC0EE336FD0EE336E150F60FD96E81
:103E6400E250DA6EFF0EDA22F20EE350DE5CF30E5D
:103E7400E350DE58F40EE350DE58F50EE350DE58FE
:103E8400D8A047EF1FF049EF1FF05EEF1FF0E1509D
:103E9400F60FD96EE250DA6EFF0EDA22F20EE3501C
:103EA400DE5EF30EE350DE5AF40EE350DE5AF50EF6
:103EB400E350DE5AFA0EE380D890F60EE336F70E9E
:103EC400E336F80EE336F90EE336FF0EE350626E86
:103ED400010E625EFF0E62C0E3FFD8A474EF1FF010
:103EE40076EF1FF026EF1FF0FE0EE3BE7EEF1FF00D
:103EF4007CEF1FF09FEF1FF0FE0EE350800A9F0F30
:103F0400D8B087EF1FF089EF1FF08BEF1FF0B6EFEB
:103F14001EF0D890FD0EE332FC0EE332FB0EE332CA
:103F2400FA0EE332FE0EE32AD8A49BEF1FF09DEFB6
:103F34001FF08BEF1FF0C0EF1FF0FE0EE3CF62F017
:103F44001F0E6264A8EF1FF0AAEF1FF0B7EF1FF077
:103F5400B6EF1EF0D890FA0EE336FB0EE336FC0EF5
:103F6400E336FD0EE336FE0EE306FE0EE350D8A460
:103F7400BEEF1FF0C0EF1FF0ACEF1FF0FA0EE3CF5F
:103F840062F0FB0EE3CF63F0FC0EE3CF64F0FD0EB2
:103F9400E3CF65F0F20EE126FF0EE2221200050ED9
:103FA400E126000EE222FA0EE350D8B4DCEF1FF053
:103FB400DEEF1FF009EF20F0F90EE3BEE6EF1FF08D
:103FC400E4EF1FF009EF20F0F60EE3CF6AF0F70EEE
:103FD400E3CF6BF0F80EE3CF6CF0F90EE3CF6DF0A6
:103FE4006A1E6B1E6C1E6D1E6A2A000E6B226C22EA
:103FF4006D22FB0E6AC0E3FFFC0E6BC0E3FFFD0EF7
:104004006CC0E3FFFE0E6DC0E3FF21EF20F0F60E5F
:10401400E3CF6AF0F70EE3CF6BF0F80EE3CF6CF06A
:10402400F90EE3CF6DF0FB0E6AC0E3FFFC0E6BC02C
:10403400E3FFFD0E6CC0E3FFFE0E6DC0E3FFF60E62
:10404400E3500DE1F70EE3500AE1F80EE35007E107
:10405400F90EE350D8A431EF20F033EF20F03DEF18
:1040640020F0000E626E000E636E000E646E000E91
:10407400656EFCEF20F0960E6D6EFF0E6DC0E3FFD3
:104084004FEF20F0FF0EE32AD890FE0EE332FD0E30
:10409400E332FC0EE332FB0EE332E150FB0FD96E48
:1040A400E250DA6EFF0EDA22DE52DE52DE52FE0EED
:1040B400DD14D8A460EF20F062EF20F044EF20F08C
:1040C4007BEF20F0FF0EE32AE150FB0FD96EE250A4
:1040D400DA6EFF0EDA22DE2A000EDE22DE22DE2275
:1040E400D890FE0EE332FD0EE332FC0EE332FB0EFB
:1040F400E332E150FB0FD96EE250DA6EFF0EDA22A2
:10410400DE52DE52DE52FF0EDD14D8A48CEF20F016
:104114008EEF20F064EF20F09BEF20F0FF0EE3061B
:10412400D890FB0EE336FC0EE336FD0EE336FE0EAE
:10413400E336FD0EE3BEA1EF20F0A3EF20F0AEEFD7
:1041440020F0FF0EE3CF62F0020E6260ACEF20F0CD
:10415400AEEF20F090EF20F0FF0EE3B0B4EF20F0CC
:10416400B6EF20F0B8EF20F0FD0EE39EE150FF0F14
:10417400D96EE250DA6EFF0EDA22D890DF32FF0EEB
:10418400E3CF6DF06DC066F0676A686A696A66C0FD
:1041940069F0686A676A666AE150FB0FD96EE2509B
:1041A400DA6EFF0EDA226650DE126750DE126850B5
:1041B400DE126950DE12FA0EE350D8B4E4EF20F0B8
:1041C400E6EF20F0F0EF20F0F90EE3BEEEEF20F082
:1041D400ECEF20F0F0EF20F0FE0EE38EFB0EE3CFC9
:1041E40062F0FC0EE3CF63F0FD0EE3CF64F0FE0E4D
:1041F400E3CF65F0F60EE126FF0EE2221200FF0E79
:10420400E3CF62F06D0E62640AEF21F00CEF21F04F
:10421400A0EF21F00A0EE66EFE0EE350E66E82EC8D
:104224002EF062506C6E6D6AD8906C366D36D890F4
:104234006C366D36350E6C24F66E060E6D20F76EF8
:104244000900F5CFE6FF0900F5CFE6FF0900F5CF39
:10425400E6FF0900F5CFE6FF0A0EE66E640EE66E91
:10426400F90EE350E66E82EC2EF06250E66E05EC39
:104274002DF062506C6E6D6AD8906C366D36D890A5
:104284006C366D36240E6C26000E6D22350E6C24B1
:10429400F66E060E6D20F76E0900F5CFE6FF0900F5
:1042A400F5CFE6FF0900F5CFE6FF0900F5CFE6FFFD
:1042B400000EE66E000EE66E000EE66E3F0EE66E33
:1042C400640EE66EF20EE350E66E05EC2DF06250DD
:1042D4006C6E6D6AD8906C366D36D8906C366D36CF
:1042E400480E6C26000E6D22350E6C24F66E060EFA
:1042F4006D20F76E0900F5CFE6FF0900F5CFE6FF64
:104304000900F5CFE6FF0900F5CFE6FF32EC11F026
:1043140062C0E6FF63C0E6FF64C0E6FF65C0E6FF77
:1043240032EC11F062C0E6FF63C0E6FF64C0E6FF52
:1043340065C0E6FF32EC11F028EF22F0FF0EE3CF68
:1043440062F00A0E6264A9EF21F0ABEF21F009EFED
:1043540022F00A0EE66EFE0EE350E66E82EC2EF0BC
:1043640062506C6E6D6AD8906C366D36D8906C362F
:104374006D36350E6C24F66E060E6D20F76E090050
:10438400F5CFE6FF0900F5CFE6FF0900F5CFE6FF1C
:104394000900F5CFE6FF000EE66E000EE66E000E95
:1043A400E66E3F0EE66E0A0EE66EF60EE350E66E1D
:1043B40005EC2DF062506C6E6D6AD8906C366D36DB
:1043C400D8906C366D36240E6C26000E6D22350E98
:1043D4006C24F66E060E6D20F76E0900F5CFE6FF2D
:1043E4000900F5CFE6FF0900F5CFE6FF0900F5CF98
:1043F400E6FF32EC11F062C0E6FF63C0E6FF64C082
:10440400E6FF65C0E6FF32EC11F028EF22F0000E63
:10441400E66E000EE66E000EE66E3F0EE66EFB0ED6
:10442400E350040D350EF324F66E060EF420F76EF9
:104434000900F5CFE6FF0900F5CFE6FF0900F5CF47
:10444400E6FF0900F5CFE6FF32EC11F0E552120069
:10445400060EE126000EE2220F0E6D6EF60EE3CF7D
:1044640068F0F70EE3CF69F0F80EE3CF6AF06D2839
:10447400626E41EF22F0D8906A3269326832622E5D
:104484003DEF22F068506D6EFE0E6DC0E3FFFE0E30
:10449400E350D8A450EF22F052EF22F059EF22F06B
:1044A400000E626E636A646A656A4EEF23F00F0E53
:1044B4006D6EF20EE3CF68F0F30EE3CF69F0F40E05
:1044C400E3CF6AF06D28626E6CEF22F0D8906A3206
:1044D40069326832622E68EF22F068506D6EFF0E0A
:1044E4006DC0E3FFFF0EE350D8A47BEF22F07DEF15
:1044F40022F07FEF22F052EF22F0F70EE38EF80E57
:10450400E36AF30EE38EF40EE36AFA0EE36AFB0E3B
:10451400E36AFC0EE36AFD0EE36AFE0EE3CF62F08B
:104524007F0E625EFE0E62C0E3FF980E6D6EFF0E9C
:10453400E3506D246C6EE150FE0FD96EE250DA6EDA
:10454400FF0EDA226C50DF5EFF0EE36AE386E38837
:10455400D890FA0EE336FB0EE336FC0EE336FD0E7E
:10456400E336E150F60FD96EE250DA6EFF0EDA222E
:10457400F20EE350DE5CF30EE350DE58F40EE3502B
:10458400DE58D8A0C8EF22F0CAEF22F0E2EF22F002
:10459400F20EE3CF6BF0F30EE3CF6CF0F40EE3CF47
:1045A4006DF0E150F60FD96EE250DA6EFF0EDA22AA
:1045B4006B50DE5E6C50DE5A6D50DE5AFA0EE380AC
:1045C400D890F60EE336F70EE336F80EE336FF0E18
:1045D400E350626E010E625EFF0E62C0E3FFD8A478
:1045E400F6EF22F0F8EF22F0AAEF22F0FE0EE3BE7F
:1045F40000EF23F0FEEF22F021EF23F0FE0EE35054
:10460400800A970FD8B009EF23F00BEF23F00DEFDA
:1046140023F052EF22F0D890FD0EE332FC0EE33289
:10462400FB0EE332FA0EE332FE0EE32AD8A41DEFAA
:1046340023F01FEF23F00DEF23F042EF23F0FE0EE3
:10464400E3CF62F0170E62642AEF23F02CEF23F01D
:1046540039EF23F052EF22F0D890FA0EE336FB0E36
:10466400E336FC0EE336FD0EE336FE0EE306FE0EE5
:10467400E350D8A440EF23F042EF23F02EEF23F0D1
:10468400FA0EE3CF62F0FB0EE3CF63F0FC0EE3CF50
:1046940064F0FD0EE3CF65F0F20EE126FF0EE22298
:1046A4001200F29EFE0EE3CF6CF0FF0EE3CF6DF02E
:1046B400020E6C24D96E000E6D20DA6EDE50DE1010
:1046C400D8B467EF23F069EF23F025EF24F0FE0E52
:1046D400E3CF6CF0FF0EE3CF6DF0040E6C24D96EC3
:1046E400000E6D20DA6EDECF6CF0DDCF6DF0FE0EC5
:1046F400E3CF6AF0FF0EE3CF6BF06C506A24D96EFF
:104704006D506B20DA6EFC0EE3CFE9FFFD0EE3CFB4
:10471400EAFFDFCFEFFFFE0EE3CF6CF0FF0EE3CF37
:104724006DF0040E6C24D96E000E6D20DA6EDECFAF
:104734006CF0DDCF6DF0010E6C26000E6D22010EC3
:104744006C16000E6D16FE0EE3CF6AF0FF0EE3CF7B
:104754006BF0040E6A24D96E000E6B20DA6E6CC006
:10476400DEFF6DC0DDFFFF0E6C6EFF0E6D6EFE0E84
:10477400E3CF6AF0FF0EE3CF6BF0020E6A24D96E2A
:10478400000E6B20DA6EDECF6AF0DDCF6BF06C507A
:104794006A266D506B22FE0EE3CF6CF0FF0EE3CF62
:1047A4006DF0020E6C24D96E000E6D20DA6E6AC0B4
:1047B400DEFF6BC0DDFFFE0EE3CF6CF0FF0EE3CF38
:1047C4006DF0080E6C24D96E000E6D20DA6EDE508A
:1047D400DE10D8B4F0EF23F0F2EF23F03BEF24F037
:1047E400FE0EE3CF6CF0FF0EE3CF6DF0080E6C24E9
:1047F400D96E000E6D20DA6EDECF6CF0DDCF6DF079
:10480400710E6C02F3CF6AF0F4CF6BF06D02F350CB
:104814006B26A60E6A24D96E000E6B20DA6E010E8A
:10482400DF6EFE0EE3CF6CF0FF0EE3CF6DF0080EEB
:104834006C24D96E000E6D20DA6E000EDE6E000E52
:10484400DD6E3BEF24F023EE4AF0FE0EE3CF6CF076
:10485400FF0EE3CF6DF0080E6C24E96E000E6D20A0
:10486400EA6EDECFEEFFDDCFEDFF030EE66E74ECF5
:1048740018F0F28EE552E552E552E5521200F29E2E
:10488400FE0EE3CF6CF0FF0EE3CF6DF0020E6C244E
:10489400D96E000E6D20DA6E010EDB5007E1020EB8
:1048A400DE5CD8B058EF24F05AEF24F00DEF25F079
:1048B400FE0EE3CF6CF0FF0EE3CF6DF0060E6C241A
:1048C400D96E000E6D20DA6EDECF6CF0DDCF6DF0A8
:1048D400FE0EE3CF6AF0FF0EE3CF6BF06C506A2458
:1048E400D96E6D506B20DA6EFD0EE3CFDFFFFE0E46
:1048F400E3CF6CF0FF0EE3CF6DF0060E6C24D96E9F
:10490400000E6D20DA6EDECF6CF0DDCF6DF0010E9F
:104914006C26000E6D22010E6C16000E6D16FE0E36
:10492400E3CF6AF0FF0EE3CF6BF0060E6A24D96E74
:10493400000E6B20DA6E6CC0DEFF6DC0DDFFFE0E74
:10494400E3CF6CF0FF0EE3CF6DF0020E6C24D96E52
:10495400000E6D20DA6EDECF6CF0DDCF6DF0010E4F
:104964006C26000E6D22FE0EE3CF6AF0FF0EE3CF3D
:104974006BF0020E6A24D96E000E6B20DA6E6CC0E6
:10498400DEFF6DC0DDFFFE0EE3CF6CF0FF0EE3CF64
:104994006DF0080E6C24D96E000E6D20DA6EDE50B8
:1049A400DE10D8B4D8EF24F0DAEF24F023EF25F0AA
:1049B400FE0EE3CF6CF0FF0EE3CF6DF0080E6C2417
:1049C400D96E000E6D20DA6EDECF6CF0DDCF6DF0A7
:1049D400710E6C02F3CF6AF0F4CF6BF06D02F350FA
:1049E4006B26A60E6A24D96E000E6B20DA6E010EB9
:1049F400DF6EFE0EE3CF6CF0FF0EE3CF6DF0080E1A
:104A04006C24D96E000E6D20DA6E000EDE6E000E80
:104A1400DD6E23EF25F023EE4AF0FE0EE3CF6CF0BB
:104A2400FF0EE3CF6DF0080E6C24E96E000E6D20CE
:104A3400EA6EDECFEEFFDDCFEDFF030EE66E74EC23
:104A440018F0F28EE552E552E5521200E652E652B3
:104A5400FA0EE3CF6AF0FB0EE3CF6BF0FC0EE3CF6C
:104A64006CF0FD0EE3CF6DF0180E3EEF25F0D890FC
:104A74006D326C326B326A32E82E39EF25F0FE0E5D
:104A84006AC0E3FFFE0EE350D8A44BEF25F04DEFD0
:104A940025F054EF25F0000E626E636A646A656A5D
:104AA400F7EF25F0FA0EE3CF6AF0FB0EE3CF6BF0DD
:104AB400FC0EE3CF6CF0FD0EE3CF6DF0200E68EF3B
:104AC40025F0D8906D326C326B326A32E82E63EF87
:104AD40025F0FF0E6AC0E3FFFC0EE38EE150FA0FEF
:104AE400D96EE250DA6EFF0EDA22FF0EDE16FF0EEA
:104AF400DE16FF0EDE16000EDE16FE0EE3CF62F0AB
:104B0400960E625EFE0E62C0E3FFFE0EE3BE8FEF02
:104B140025F08DEF25F0B0EF25F0FE0EE350800A6E
:104B2400970FD8B098EF25F09AEF25F09CEF25F079
:104B34004DEF25F0D890FD0EE332FC0EE332FB0E70
:104B4400E332FA0EE332FE0EE32AD8A4ACEF25F0EA
:104B5400AEEF25F09CEF25F0D1EF25F0FE0EE3CF6C
:104B640062F01F0E6264B9EF25F0BBEF25F0C8EFC9
:104B740025F04DEF25F0D890FA0EE336FB0EE33620
:104B8400FC0EE336FD0EE336FE0EE306FE0EE350A6
:104B9400D8A4CFEF25F0D1EF25F0BDEF25F0FF0E1F
:104BA400E350D8B4D8EF25F0DAEF25F0EBEF25F099
:104BB400FA0EE36CFB0EE31EFC0EE31EFD0EE31E79
:104BC40008E3FB0EE32A05E3FC0EE32A02E3FD0EF1
:104BD400E32AFA0EE3CF62F0FB0EE3CF63F0FC0EA0
:104BE400E3CF64F0FD0EE3CF65F0FA0EE126FF0E8D
:104BF400E2221200E150FC0FD96EE250DA6EFF0E91
:104C0400DA22000EDE146A6E000EDE146B6E800E65
:104C1400DE146C6E7F0EDE146D6E6A506B106C10B9
:104C24006D10D8A418EF26F01AEF26F022EF26F024
:104C3400FC0EE36AFD0EE36AFE0EE36AFF0EE36A0E
:104C4400E150F80FD96EE250DA6EFF0EDA22000E50
:104C5400DE146A6E000EDE146B6E800EDE146C6E53
:104C64007F0EDE146D6E6A506B106C106D10D8A43C
:104C74003EEF26F040EF26F048EF26F0F80EE36A08
:104C8400F90EE36AFA0EE36AFB0EE36AFF0EE3AE83
:104C94004EEF26F050EF26F070EF26F0000E6A6E0D
:104CA400000E6B6E000E6C6E800E6D6EFC0EE3508B
:104CB4006A5EFD0EE3506B5AFE0EE3506C5AFF0E13
:104CC400E3506D5AFC0E6AC0E3FFFD0E6BC0E3FFB8
:104CD400FE0E6CC0E3FFFF0E6DC0E3FFFB0EE3AE00
:104CE40076EF26F078EF26F098EF26F0000E6A6E45
:104CF400000E6B6E000E6C6E800E6D6EF80EE3503F
:104D04006A5EF90EE3506B5AFA0EE3506C5AFB0ECE
:104D1400E3506D5AF80E6AC0E3FFF90E6BC0E3FF6F
:104D2400FA0E6CC0E3FFFB0E6DC0E3FFFF0EE37EE3
:104D3400FB0EE37EE150FC0FD96EE250DA6EFF0EFB
:104D4400DA22F80EE350DE5CF90EE350DE58FA0E78
:104D5400E350DE58FB0EE350DE58D8B0B4EF26F033
:104D6400B6EF26F0B9EF26F06290BAEF26F0628033
:104D7400F80EE126FF0EE222120023EE48F0010EA7
:104D8400DBBECFEF26F0010EDB5009E1060EDE5C40
:104D9400D8A0CFEF26F0D1EF26F0D8EF26F0000E02
:104DA4000001936F000E926F7CEF27F0710EE66E98
:104DB400000EE66E23EE48F0DECF5FF0DDCF60F04C
:104DC4005FC0E6FF60C0E6FFBEEC2FF0A20E6224D7
:104DD400D96E000E6320DA6E92C0DEFF93C0DDFF51
:104DE400710EE66E000EE66E23EE48F0DECF5FF045
:104DF400DDCF60F05FC0E6FF60C0E6FFBEEC2FF0E1
:104E0400A40E6224D96E000E6320DA6E94C0DEFF15
:104E140095C0DDFF710EE66E000EE66E23EE48F0DF
:104E2400DECF5FF0DDCF60F05FC0E6FF60C0E6FF7D
:104E3400BEEC2FF00F0E6224D96E010E6320DA6EE1
:104E440096C0DEFF97C0DDFF710EE66E000EE66EC3
:104E540023EE48F0DECF5FF0DDCF60F05FC0E6FF09
:104E640060C0E6FFBEEC2FF0110E6224D96E010E75
:104E74006320DA6E000EDE6E000EDD6E710EE66EDD
:104E8400000EE66E23EE48F0DECF5FF0DDCF60F07B
:104E94005FC0E6FF60C0E6FFBEEC2FF0A60E622402
:104EA400D96E000E6320DA6E010EDF6E710EE66EAF
:104EB400000EE66E23EE48F0DECF5FF0DDCF60F04B
:104EC4005FC0E6FF60C0E6FFBEEC2FF0A70E6224D1
:104ED400D96E000E6320DA6E000EDE6E000EDD6EFB
:104EE40023EE48F0DE2A000EDD22000E0001936F4F
:104EF400010E926F1200E652E652E652E652FE0EA0
:104F0400E36AF90EE3BE8BEF27F089EF27F094EF05
:104F140027F0F80EE36CF90EE31ED8B0E32AFE0E78
:104F2400E36AE32AFB0EE3BE9CEF27F09AEF27F037
:104F3400A4EF27F0FA0EE36CFB0EE31ED8B0E32ACD
:104F4400FE0EE370FC0EE36AFD0EE36AF80EE3CF97
:104F540062F0F90EE3506210D8B4B3EF27F0B5EF66
:104F640027F021EF28F0FF0EE36AE32ACBEF27F0C6
:104F7400F80EE350D890E834626EF80E62C0E3FF96
:104F8400F90EE350E834626EF90E62C0E3FFFF0EDF
:104F9400E32AF90EE3AED1EF27F0D3EF27F0BAEF0F
:104FA40027F0FC0EE350D890E834626EFC0E62C029
:104FB400E3FFFD0EE350E834626EFD0E62C0E3FFD2
:104FC400F80EE3CF6CF0F90EE3CF6DF0FA0EE3CFF9
:104FD4006AF0FB0EE3CF6BF06C506A5C6D506B585B
:104FE400D8A0F7EF27F0F9EF27F00DEF28F0FA0E2D
:104FF400E350626EF80EE350625EFA0E62C0E3FFA5
:10500400FB0EE350626EF90EE350625AFB0E62C06F
:10501400E3FFFC0EE380D890F90EE332F80EE3329E
:10502400FF0EE350626E010E625EFF0E62C0E3FF8C
:10503400D8A41FEF28F021EF28F0D3EF27F0FE0EBD
:10504400E350D8B428EF28F02AEF28F030EF28F006
:10505400FC0EE36CFD0EE31ED8B0E32AFC0EE3CF96
:1050640062F0FD0EE3CF63F0F80EE126FF0EE222BC
:105074001200F29EFE0EE3CF6CF0FF0EE3CF6DF054
:10508400100E6C24D96E000E6D20DA6EDE2A000E2E
:10509400DD22FE0EE3CF6CF0FF0EE3CF6DF0100EB9
:1050A4006C24D96E000E6D20DA6E010EDBBE66EF45
:1050B40028F0010EDB5006E1DE04D8B064EF28F0DE
:1050C40066EF28F0DEEF28F0FE0EE3CF6CF0FF0E63
:1050D400E3CF6DF00E0E6C24D96E000E6D20DA6EE7
:1050E400DECF6CF0DDCF6DF0D8906C346A6E6D3429
:1050F4006B6EFE0EE3CF6CF0FF0EE3CF6DF06A50E3
:105104006C24D96E6B506D20DA6EDECF6CF0DDCF7F
:105114006DF0710E6C02F3CF6AF0F4CF6BF06D0298
:10512400F3506B26A60E6A24D96E000E6B20DA6E3D
:10513400010EDF6EFE0EE3CF6CF0FF0EE3CF6DF0D9
:105144000C0E6C24D96E000E6D20DA6EDECF6CF07E
:10515400DDCF6DF06CC0E6FF6DC0E6FFFC0EE3CF63
:105164006CF0FD0EE3CF6DF00E0E6C24D96E000EC4
:105174006D20DA6EDECF6CF0DDCF6DF0010E6C26A3
:10518400000E6D226CC0E6FF6DC0E6FFE2EC28F075
:10519400FE0EE3CF6CF0FF0EE3CF6DF00E0E6C2429
:1051A400D96E000E6D20DA6E62C0DEFF63C0DDFFD3
:1051B400010EE66E74EC18F0F28EE552E552120020
:1051C400E652E652FE0EE36AFD0EE3BEEEEF28F071
:1051D400ECEF28F0F7EF28F0FC0EE36CFD0EE31E75
:1051E400D8B0E32AFE0EE36AE32AFB0EE3BEFFEF28
:1051F40028F0FDEF28F005EF29F0FA0EE36CFB0E22
:10520400E31ED8B0E32AFA0EE3CF62F0FB0EE350BC
:105214006210D8B410EF29F012EF29F06DEF29F0E5
:10522400FF0EE36AE32A28EF29F0FA0EE350D89040
:10523400E834626EFA0E62C0E3FFFB0EE350E8341A
:10524400626EFB0E62C0E3FFFF0EE32AFB0EE3AEC9
:105254002EEF29F030EF29F017EF29F0FA0EE3CF03
:105264006CF0FB0EE3CF6DF0FC0EE3CF6AF0FD0EA5
:10527400E3CF6BF06C506A5C6D506B58D8A045EF6F
:1052840029F047EF29F059EF29F0FC0EE350626E44
:10529400FA0EE350625EFC0E62C0E3FFFD0EE350C3
:1052A400626EFB0EE350625AFD0E62C0E3FFD890BB
:1052B400FB0EE332FA0EE332FF0EE350626E010E90
:1052C400625EFF0E62C0E3FFD8A46BEF29F06DEFBE
:1052D40029F030EF29F0FE0EE350D8B474EF29F032
:1052E40076EF29F07CEF29F0FC0EE36CFD0EE31E53
:1052F400D8B0E32AFC0EE3CF62F0FD0EE3CF63F0F7
:10530400FA0EE126FF0EE2221200050EE126000E3F
:10531400E222FB0EE36AFC0EE36AFD0EE36AFE0E74
:10532400E36AF30EE3500FE1F40EE3500CE1F50EE3
:10533400E35009E1F60EE350D8B4A3EF29F0A5EF4A
:1053440029F00DEF2AF0FF0EE36AE32AB5EF29F006
:10535400D890F30EE336F40EE336F50EE336F60E8C
:10536400E336FF0EE32AF60EE3AEBBEF29F0BDEF02
:1053740029F0AAEF29F0D890FB0EE336FC0EE336B1
:10538400FD0EE336FE0EE336E150F70FD96EE25020
:10539400DA6EFF0EDA22F30EE350DE5CF40EE35015
:1053A400DE58F50EE350DE58F60EE350DE58D8A072
:1053B400DEEF29F0E0EF29F0F5EF29F0E150F70FE7
:1053C400D96EE250DA6EFF0EDA22F30EE350DE5E9F
:1053D400F40EE350DE5AF50EE350DE5AF60EE350B7
:1053E400DE5AFB0EE380D890F60EE332F50EE3327C
:1053F400F40EE332F30EE332FF0EE350626E010E5D
:10540400625EFF0E62C0E3FFD8A40BEF2AF00DEF3B
:105414002AF0BDEF29F0FB0EE3CF62F0FC0EE3CFE0
:1054240063F0FD0EE3CF64F0FE0EE3CF65F0F30E00
:10543400E126FF0EE222120000019F6F7E0E0001A2
:105444009F6527EF2AF029EF2AF02FEF2AF0000EAC
:10545400976F000E986FB0EF2AF04C0EA06F030EFA
:10546400A16FA0C0D9FFA1C0DAFFDF5000019E6F79
:105474009E517F0B996F99059D6F9E51D8A445EF5E
:105484002AF047EF2AF049EF2AF029EF2AF09EBFCD
:105494004EEF2AF050EF2AF067EF2AF09F519D5DFE
:1054A400D8B057EF2AF059EF2AF073EF2AF0A0C0D2
:1054B4005FF0A1C060F098EC2CF00009D8A465EF6F
:1054C4002AF067EF2AF0AEEF2AF000019E517F0B1D
:1054D400996F9951010DF350A027F450A12333EF94
:1054E4002AF09D519F19D8A47AEF2AF07CEF2AF074
:1054F40089EF2AF0A0C0D9FFA1C0DAFFDF8E010E28
:10550400A025976F000EA121986FB0EF2AF09F514C
:10551400810FA0C0D9FFA1C0DAFFDF6E010EA02564
:105524009B6F000EA1219C6F9F51996F9A6B010E86
:105534009927000E9A239951A0279A51A1239F518C
:105544009D5DA0C0D9FFA1C0DAFFDF6E9BC097F0BC
:105554009CC098F0B0EF2AF033EF2AF01200E65224
:10556400F70EE3500FE1F80EE3500CE1F90EE350AF
:1055740009E1FA0EE350D8B4C2EF2AF0C4EF2AF0DE
:1055840021EF2BF0FF0EE36AE32AD4EF2AF0D89040
:10559400F70EE336F80EE336F90EE336FA0EE33689
:1055A400FF0EE32AFA0EE3AEDAEF2AF0DCEF2AF07C
:1055B400C9EF2AF0E150FB0FD96EE250DA6EFF0E0C
:1055C400DA22F70EE350DE5CF80EE350DE58F90EF3
:1055D400E350DE58FA0EE350DE58D8A0F4EF2AF078
:1055E400F6EF2AF009EF2BF0E150FB0FD96EE250F1
:1055F400DA6EFF0EDA22F70EE350DE5EF80EE350A9
:10560400DE5AF90EE350DE5AFA0EE350DE5AD89011
:10561400FA0EE332F90EE332F80EE332F70EE33218
:10562400FF0EE350626E010E625EFF0E62C0E3FF86
:10563400D8A41FEF2BF021EF2BF0DCEF2AF0FB0EA8
:10564400E3CF62F0FC0EE3CF63F0FD0EE3CF64F032
:10565400FE0EE3CF65F0F70EE126FF0EE222120004
:10566400F29EFE0EE3CF6CF0FF0EE3CF6DF0100E52
:105674006C24D96E000E6D20DA6EDE06000EDD5A43
:10568400FE0EE3CF6CF0FF0EE3CF6DF0100E6C2432
:10569400D96E000E6D20DA6E010EDBBE56EF2BF0D4
:1056A40054EF2BF0AFEF2BF023EE4AF0FE0EE3CFD6
:1056B4006CF0FF0EE3CF6DF00C0E6C24E96E000E5F
:1056C4006D20EA6EEECF6CF0EDCF6DF0D8906C34B7
:1056D4006A6E6D346B6EFE0EE3CF6CF0FF0EE3CF9B
:1056E4006DF06A506C24E96E6B506D20EA6EDECF6B
:1056F400EEFFDDCFEDFF070EE66E000EE66EFC0E4C
:10570400E3CF6CF0FD0EE3CF6DF00C0E6C24D96E7C
:10571400000E6D20DA6EDECF6CF0DDCF6DF0010E81
:105724006C26000E6D226CC0E6FF6DC0E6FFE2EC55
:1057340028F0FE0EE3CF6CF0FF0EE3CF6DF00C0EFD
:105744006C24D96E000E6D20DA6E62C0DEFF63C079
:10575400DDFF040EE66E74EC18F0F28EE552E552AD
:10576400120054EC32F04DEC30F0000E0001936F57
:10577400010E926F000E956F060E946F360E966FA3
:105784003A0E976FBFEC26F0000192519311D8A402
:10579400CEEF2BF0D0EF2BF0D2EF2BF024EF2CF048
:1057A400000E936F020E926F000E956F050E946FAC
:1057B400280E966F650E976FBFEC26F0000192518C
:1057C4009311D8A4E8EF2BF0EAEF2BF0ECEF2BF0D9
:1057D40024EF2CF0000E936F030E926F000E956F62
:1057E400040E946FE80E966F640E976FBFEC26F06C
:1057F400000192519311D8A402EF2CF004EF2CF085
:1058040006EF2CF024EF2CF0000E936F040E926F31
:10581400000E956F030E946F660E966F640E976F6D
:10582400BFEC26F0000192519311D8A41CEF2CF088
:105834001EEF2CF020EF2CF024EF2CF012EC33F0C0
:1058440022EF2CF006EF00F0E150FC0FD96EE2508D
:10585400DA6EFF0EDA22000EDE146A6E000EDE141B
:105864006B6E800EDE146C6E7F0EDE146D6E6A50ED
:105874006B106C106D10D8A442EF2CF044EF2CF098
:105884004CEF2CF0FC0EE36AFD0EE36AFE0EE36AB5
:10589400FF0EE36AE150F80FD96EE250DA6EFF0EA4
:1058A400DA22000EDE146A6E000EDE146B6E800EB9
:1058B400DE146C6E7F0EDE146D6E6A506B106C100D
:1058C4006D10D8A468EF2CF06AEF2CF072EF2CF076
:1058D400F80EE36AF90EE36AFA0EE36AFB0EE36A72
:1058E400E150FC0FD96EE250DA6EFF0EDA22F80EA8
:1058F400E350DE1812E1F90EE350DE180EE1FA0E61
:10590400E350DE180AE1FB0EE350DE18D8B48DEF45
:105914002CF08FEF2CF092EF2CF0629093EF2CF0A0
:105924006280F80EE126FF0EE22212005FC0D9FF6A
:1059340060C0DAFFDF50616E61505F240001936F35
:10594400000E6020946F5FC0D9FF60C0DAFFDF50A3
:10595400956F93C0D9FF94C0DAFFDF50966F9651CC
:10596400D8A4B7EF2CF0B9EF2CF0BCEF2CF0000E5C
:1059740004EF2DF095BFC1EF2CF0C3EF2CF0B9EF7D
:105984002CF096AFC8EF2CF0CAEF2CF0CCEF2CF033
:10599400B9EF2CF095517F0B7F0AD8A4D4EF2CF0EB
:1059A400D6EF2CF0D8EF2CF0B9EF2CF095519625CA
:1059B400926F7F0E9265E1EF2CF0E3EF2CF0FDEF98
:1059C4002CF05FC0D9FF60C0DAFF7F0EDF6E7F0E60
:1059D4005F26000E60229651010DF3509327F45078
:1059E40094235F50935D5FC0D9FF60C0DAFFDF6E20
:1059F4007F0E04EF2DF05FC0D9FF60C0DAFF92C0C4
:105A0400DFFFDF501200E652E652FE0EE36AFC0EA0
:105A1400E350D8B410EF2DF012EF2DF06AEF2DF013
:105A2400FF0EE36AE32A22EF2DF0E150FC0FD96E5A
:105A3400E250DA6EFF0EDA22D890DF36FF0EE32A48
:105A4400FC0EE3AE28EF2DF02AEF2DF017EF2DF02A
:105A5400E150FE0FD96EE250DA6EFF0EDA22D890D2
:105A6400DF36E150FD0FD96EE250DA6EFF0EDA2216
:105A7400FC0EE350DE5CD8A042EF2DF044EF2DF095
:105A840052EF2DF0FC0EE3CF6DF0E150FD0FD96E17
:105A9400E250DA6EFF0EDA226D50DF5EFE0EE38016
:105AA400E150FC0FD96EE250DA6EFF0EDA22D89084
:105AB400DF32FF0EE350626E010E625EFF0E62C0C3
:105AC400E3FFD8A468EF2DF06AEF2DF02AEF2DF054
:105AD400FE0EE3CF62F0E552E552E552E5521200C4
:105AE400E652E652FE0EE36AFF0EE36AA8EF2DF0DB
:105AF400FC0EE3CF6CF0FD0EE3CF6DF0FE0EE35031
:105B04006C26FF0EE3506D226CC0F6FF6DC0F7FFEC
:105B1400F86A050EF76403D00800F55005D0F6CFF7
:105B2400E9FFF7CFEAFFEF50E66E17EC31F0FE0E17
:105B3400E350010F626EFE0E62C0E3FF626AFF0E65
:105B4400E3506220626EFF0E62C0E3FFFC0EE3CFFF
:105B54006CF0FD0EE3CF6DF0FE0EE3506C26FF0EED
:105B6400E3506D226CC0F6FF6DC0F7FFF86A050EB6
:105B7400F76403D00800F55005D0F6CFE9FFF7CF5E
:105B8400EAFFEF500009D8A4CAEF2DF0CCEF2DF0B6
:105B94007AEF2DF0E552E552E552E5521200060087
:105BA400E1CF4FF0E2CF50F0D9CF51F0DACF52F03D
:105BB400F3CF53F0F4CF54F062C055F063C056F005
:105BC40068C057F069C058F06AC059F06BC05AF009
:105BD4006CC05BF06DC05CF015EE88F0F294FC0EC6
:105BE400D66EFF0E6E246E6EFF0E6F206F6E6FBE4C
:105BF40006EF2EF06F5006E16E04D8B004EF2EF0DD
:105C040006EF2EF00EEF2EF0000E6F6E080E6E6E85
:105C1400010EE66E74EC18F05CC06DF05BC06CF0C5
:105C24005AC06BF059C06AF058C069F057C068F0A8
:105C340056C063F055C062F054C0F4FF53C0F3FF84
:105C440052C0DAFF51C0D9FF50C0E2FF4FC0E1FF9C
:105C54001100E652E652E652E652FE0EE36AFF0EE9
:105C6400E36A66EF2EF0FC0EE36AFD0EE36AFC0EB7
:105C7400E350010F626EFC0E62C0E3FF626AFD0E28
:105C8400E3506220626EFD0E62C0E3FFFD0EE3503E
:105C94000CE1FC0EE3CF62F0A50E625ED8A055EFD6
:105CA4002EF057EF2EF039EF2EF0FE0EE350010FD9
:105CB400626EFE0E62C0E3FF626AFF0EE350622072
:105CC400626EFF0E62C0E3FFFA0EE3CF6CF0FB0ED0
:105CD400E3CF6DF0FE0EE3CF6AF0FF0EE3CF6BF07F
:105CE4006C506A5C6D506B58D8A07BEF2EF07DEF42
:105CF4002EF035EF2EF0FA0EE126FF0EE22212000E
:105D0400E652E652FF0EE36AE386FE0EE36AFD0EF8
:105D1400E3CF6DF0FE0EE3CF6CF0D8906D346C34AD
:105D24006D6EFE0E6DC0E3FFE150FD0FD96EE250C3
:105D3400DA6EFF0EDA22D890DF36E150FE0FD96E0C
:105D4400E250DA6EFF0EDA22FC0EE350DE5CD8A0DD
:105D5400AEEF2EF0B0EF2EF0BCEF2EF0FC0EE3CF42
:105D64006DF0E150FE0FD96EE250DA6EFF0EDA22CA
:105D74006D50DF5EFF0EE350626E010E625EFF0E39
:105D840062C0E3FFD8A4C9EF2EF0CBEF2EF089EF69
:105D94002EF0FE0EE3CF62F0E552E552E552E552F5
:105DA400120095909592959495969598959A959CB0
:105DB400959E939A939C949094920A0E1EEC2AF0CA
:105DC40097C001F098C002F0290E0001926F000EF6
:105DD400936F000E956F010E946F11EC32F0170E55
:105DE4000001926F000E936F000E956F000E946F7A
:105DF40011EC32F0050E0001926F000E936F000E4D
:105E0400956F000E946F11EC32F0800E0001926FCA
:105E1400000E936F000E956F000E946F11EC32F02C
:105E2400450E5F6E000E606E76EC31F03B0E5F6ED9
:105E3400000E606E76EC31F0F7EC32F009EC30F0E5
:105E44001200E652E652E652FC0EE304D8A42DEF0B
:105E54002FF02FEF2FF055EF2FF07F0E6D6EFB0E0E
:105E6400E3506D246C6EFD0E6CC0E3FFFD0EE3CFBA
:105E74006DF06D3A0F0E6D16FF0E6DC0E3FFFD0E53
:105E8400E3CF6DF00F0E6D16FE0E6DC0E3FFFF0E37
:105E9400E350E66EE5EC32F0FE0EE350E66EE5EC20
:105EA40032F06CEF2FF0FC0EE3CF62F0020E6218BA
:105EB400D8A45FEF2FF061EF2FF06CEF2FF0BF0E3F
:105EC4006D6EFB0EE3506D246C6EFD0E6CC0E3FF33
:105ED40038EF2FF0FB0EE126FF0EE2221200E6520D
:105EE400E652FE0E4AC3E3FFFF0E4BC3E3FF23EE6D
:105EF40048F0DECF6CF0DDCF6DF06CC0E6FF6DC016
:105F0400E6FFFC0EE350010F6C6EFD0EE3CF6DF067
:105F1400000E6D226CC0E6FF6DC0E6FFE2EC28F0D7
:105F2400FE0E62C0E3FFFF0E63C0E3FFFE0EE3CF8D
:105F34006CF0FF0EE3CF6DF0710E6C02F3CF6AF0DC
:105F4400F4CF6BF06D02F3506B26A60E6A24D96E63
:105F5400000E6B20DA6EDE04D8A4B3EF2FF0B5EF99
:105F64002FF079EF2FF0FE0EE3CF62F0FF0EE3CFB8
:105F740063F0E552E5521200E652E652FA0EE3CF20
:105F84006DF0FC0EE3506D02FE0EF3CFE3FFFF0E47
:105F9400F4CFE3FFFB0EE124D96EFF0EE220DA6EAC
:105FA400DF506D6EFC0EE3506D02F3CFF4FFF36A25
:105FB400E150FE0FD96EE250DA6EFF0EDA22F35092
:105FC400DE26F450DD22FA0EE3CF6DF0FD0EE1245F
:105FD400D96EFF0EE220DA6EDF506D02F3CFF4FFCC
:105FE400F36AE150FE0FD96EE250DA6EFF0EDA2248
:105FF400F350DE26F450DD22FE0EE3CF62F0FF0EF6
:10600400E3CF63F0FA0EE126FF0EE2221200000E47
:10601400E66E81EC30F01A0E5F6EF80EE82EFED7B5
:106024005F2EFCD700D0030EE66EE5EC32F0070ECF
:106034005F6E7D0EE82EFED75F2EFCD700F0030EB8
:10604400E66EE5EC32F00F0E5F6E480EE82EFED7DA
:106054005F2EFCD7030EE66EE5EC32F0020EE66E20
:10606400E5EC32F0020EE66EE5EC32F0080EE66E78
:10607400E5EC32F0000EE66EE5EC32F00C0EE66E66
:10608400E5EC32F0000EE66EE5EC32F0060EE66E5C
:10609400E5EC32F012004C0E0001926F030E936F88
:1060A400010E956F9469955109E1800E945DD8A015
:1060B4005EEF30F060EF30F072EF30F092C0D9FF55
